{
  "_format": "hh-sol-artifact-1",
  "contractName": "Platform",
  "sourceName": "contracts/Platform.sol",
  "abi": [
    {
      "anonymous": false,
      "inputs": [
        {
          "indexed": false,
          "internalType": "uint256",
          "name": "_id",
          "type": "uint256"
        },
        {
          "indexed": false,
          "internalType": "address",
          "name": "_candidateAddress",
          "type": "address"
        }
      ],
      "name": "CandidateApplied",
      "type": "event"
    },
    {
      "anonymous": false,
      "inputs": [
        {
          "indexed": false,
          "internalType": "uint8",
          "name": "_fee",
          "type": "uint8"
        }
      ],
      "name": "FeeUpdated",
      "type": "event"
    },
    {
      "anonymous": false,
      "inputs": [
        {
          "indexed": true,
          "internalType": "address",
          "name": "previousOwner",
          "type": "address"
        },
        {
          "indexed": true,
          "internalType": "address",
          "name": "newOwner",
          "type": "address"
        }
      ],
      "name": "OwnershipTransferred",
      "type": "event"
    },
    {
      "anonymous": false,
      "inputs": [
        {
          "indexed": false,
          "internalType": "uint256",
          "name": "_id",
          "type": "uint256"
        },
        {
          "indexed": false,
          "internalType": "address",
          "name": "_authorAddress",
          "type": "address"
        }
      ],
      "name": "ProjectAdded",
      "type": "event"
    },
    {
      "anonymous": false,
      "inputs": [
        {
          "indexed": false,
          "internalType": "uint256",
          "name": "_id",
          "type": "uint256"
        },
        {
          "indexed": false,
          "internalType": "address",
          "name": "_assigneeAddress",
          "type": "address"
        }
      ],
      "name": "ProjectAssigned",
      "type": "event"
    },
    {
      "anonymous": false,
      "inputs": [
        {
          "indexed": false,
          "internalType": "uint256",
          "name": "_id",
          "type": "uint256"
        }
      ],
      "name": "ProjectCompleted",
      "type": "event"
    },
    {
      "anonymous": false,
      "inputs": [
        {
          "indexed": false,
          "internalType": "uint256",
          "name": "_id",
          "type": "uint256"
        }
      ],
      "name": "ProjectDeleted",
      "type": "event"
    },
    {
      "anonymous": false,
      "inputs": [
        {
          "indexed": false,
          "internalType": "uint256",
          "name": "_id",
          "type": "uint256"
        }
      ],
      "name": "ProjectUnassigned",
      "type": "event"
    },
    {
      "anonymous": false,
      "inputs": [
        {
          "indexed": false,
          "internalType": "uint256",
          "name": "_id",
          "type": "uint256"
        },
        {
          "indexed": false,
          "internalType": "string",
          "name": "_result",
          "type": "string"
        }
      ],
      "name": "ResultSubmitted",
      "type": "event"
    },
    {
      "inputs": [
        {
          "components": [
            {
              "internalType": "string",
              "name": "title",
              "type": "string"
            },
            {
              "internalType": "string",
              "name": "description",
              "type": "string"
            },
            {
              "internalType": "enum Platform.ProjectType",
              "name": "projectType",
              "type": "uint8"
            },
            {
              "internalType": "uint256",
              "name": "reward",
              "type": "uint256"
            }
          ],
          "internalType": "struct Platform.ReceivedProject",
          "name": "_newProject",
          "type": "tuple"
        }
      ],
      "name": "addProject",
      "outputs": [
        {
          "internalType": "bool",
          "name": "",
          "type": "bool"
        }
      ],
      "stateMutability": "payable",
      "type": "function"
    },
    {
      "inputs": [
        {
          "internalType": "uint256",
          "name": "_id",
          "type": "uint256"
        }
      ],
      "name": "applyForProject",
      "outputs": [
        {
          "internalType": "bool",
          "name": "",
          "type": "bool"
        }
      ],
      "stateMutability": "nonpayable",
      "type": "function"
    },
    {
      "inputs": [
        {
          "internalType": "uint256",
          "name": "_id",
          "type": "uint256"
        },
        {
          "internalType": "address payable",
          "name": "_candidateAddress",
          "type": "address"
        }
      ],
      "name": "assignProject",
      "outputs": [
        {
          "internalType": "bool",
          "name": "",
          "type": "bool"
        }
      ],
      "stateMutability": "nonpayable",
      "type": "function"
    },
    {
      "inputs": [
        {
          "internalType": "uint256",
          "name": "_id",
          "type": "uint256"
        },
        {
          "internalType": "uint8",
          "name": "_rating",
          "type": "uint8"
        }
      ],
      "name": "completeProject",
      "outputs": [
        {
          "internalType": "bool",
          "name": "",
          "type": "bool"
        }
      ],
      "stateMutability": "nonpayable",
      "type": "function"
    },
    {
      "inputs": [
        {
          "internalType": "uint256",
          "name": "_id",
          "type": "uint256"
        }
      ],
      "name": "deleteProject",
      "outputs": [
        {
          "internalType": "bool",
          "name": "",
          "type": "bool"
        }
      ],
      "stateMutability": "payable",
      "type": "function"
    },
    {
      "inputs": [],
      "name": "getAllProjects",
      "outputs": [
        {
          "components": [
            {
              "internalType": "uint256",
              "name": "id",
              "type": "uint256"
            },
            {
              "internalType": "string",
              "name": "title",
              "type": "string"
            },
            {
              "internalType": "string",
              "name": "description",
              "type": "string"
            },
            {
              "internalType": "address payable",
              "name": "author",
              "type": "address"
            },
            {
              "internalType": "address payable",
              "name": "assignee",
              "type": "address"
            },
            {
              "components": [
                {
                  "internalType": "address",
                  "name": "candidate",
                  "type": "address"
                },
                {
                  "internalType": "uint8",
                  "name": "rating",
                  "type": "uint8"
                }
              ],
              "internalType": "struct Platform.Candidate[]",
              "name": "candidates",
              "type": "tuple[]"
            },
            {
              "internalType": "uint256",
              "name": "createdAt",
              "type": "uint256"
            },
            {
              "internalType": "uint256",
              "name": "completedAt",
              "type": "uint256"
            },
            {
              "internalType": "enum Platform.ProjectType",
              "name": "projectType",
              "type": "uint8"
            },
            {
              "internalType": "uint256",
              "name": "reward",
              "type": "uint256"
            },
            {
              "internalType": "string",
              "name": "result",
              "type": "string"
            }
          ],
          "internalType": "struct Platform.Project[]",
          "name": "",
          "type": "tuple[]"
        }
      ],
      "stateMutability": "view",
      "type": "function"
    },
    {
      "inputs": [
        {
          "internalType": "uint256",
          "name": "_id",
          "type": "uint256"
        }
      ],
      "name": "getProject",
      "outputs": [
        {
          "components": [
            {
              "internalType": "uint256",
              "name": "id",
              "type": "uint256"
            },
            {
              "internalType": "string",
              "name": "title",
              "type": "string"
            },
            {
              "internalType": "string",
              "name": "description",
              "type": "string"
            },
            {
              "internalType": "address payable",
              "name": "author",
              "type": "address"
            },
            {
              "internalType": "address payable",
              "name": "assignee",
              "type": "address"
            },
            {
              "components": [
                {
                  "internalType": "address",
                  "name": "candidate",
                  "type": "address"
                },
                {
                  "internalType": "uint8",
                  "name": "rating",
                  "type": "uint8"
                }
              ],
              "internalType": "struct Platform.Candidate[]",
              "name": "candidates",
              "type": "tuple[]"
            },
            {
              "internalType": "uint256",
              "name": "createdAt",
              "type": "uint256"
            },
            {
              "internalType": "uint256",
              "name": "completedAt",
              "type": "uint256"
            },
            {
              "internalType": "enum Platform.ProjectType",
              "name": "projectType",
              "type": "uint8"
            },
            {
              "internalType": "uint256",
              "name": "reward",
              "type": "uint256"
            },
            {
              "internalType": "string",
              "name": "result",
              "type": "string"
            }
          ],
          "internalType": "struct Platform.Project",
          "name": "",
          "type": "tuple"
        }
      ],
      "stateMutability": "view",
      "type": "function"
    },
    {
      "inputs": [
        {
          "internalType": "address",
          "name": "_address",
          "type": "address"
        }
      ],
      "name": "getRating",
      "outputs": [
        {
          "internalType": "uint8",
          "name": "",
          "type": "uint8"
        }
      ],
      "stateMutability": "view",
      "type": "function"
    },
    {
      "inputs": [
        {
          "internalType": "uint256",
          "name": "_id",
          "type": "uint256"
        },
        {
          "internalType": "address",
          "name": "_address",
          "type": "address"
        }
      ],
      "name": "isAddressApplied",
      "outputs": [
        {
          "internalType": "bool",
          "name": "",
          "type": "bool"
        }
      ],
      "stateMutability": "view",
      "type": "function"
    },
    {
      "inputs": [],
      "name": "owner",
      "outputs": [
        {
          "internalType": "address",
          "name": "",
          "type": "address"
        }
      ],
      "stateMutability": "view",
      "type": "function"
    },
    {
      "inputs": [],
      "name": "platformFeePercentage",
      "outputs": [
        {
          "internalType": "uint8",
          "name": "",
          "type": "uint8"
        }
      ],
      "stateMutability": "view",
      "type": "function"
    },
    {
      "inputs": [],
      "name": "renounceOwnership",
      "outputs": [],
      "stateMutability": "nonpayable",
      "type": "function"
    },
    {
      "inputs": [
        {
          "internalType": "uint8",
          "name": "_fee",
          "type": "uint8"
        }
      ],
      "name": "setPlatformFee",
      "outputs": [
        {
          "internalType": "bool",
          "name": "",
          "type": "bool"
        }
      ],
      "stateMutability": "nonpayable",
      "type": "function"
    },
    {
      "inputs": [
        {
          "internalType": "uint256",
          "name": "_id",
          "type": "uint256"
        },
        {
          "internalType": "string",
          "name": "_result",
          "type": "string"
        }
      ],
      "name": "submitResult",
      "outputs": [
        {
          "internalType": "bool",
          "name": "",
          "type": "bool"
        }
      ],
      "stateMutability": "nonpayable",
      "type": "function"
    },
    {
      "inputs": [],
      "name": "totalFees",
      "outputs": [
        {
          "internalType": "uint256",
          "name": "",
          "type": "uint256"
        }
      ],
      "stateMutability": "view",
      "type": "function"
    },
    {
      "inputs": [
        {
          "internalType": "address",
          "name": "newOwner",
          "type": "address"
        }
      ],
      "name": "transferOwnership",
      "outputs": [],
      "stateMutability": "nonpayable",
      "type": "function"
    },
    {
      "inputs": [
        {
          "internalType": "uint256",
          "name": "_id",
          "type": "uint256"
        }
      ],
      "name": "unassignProject",
      "outputs": [
        {
          "internalType": "bool",
          "name": "",
          "type": "bool"
        }
      ],
      "stateMutability": "nonpayable",
      "type": "function"
    },
    {
      "inputs": [],
      "name": "withdrawFees",
      "outputs": [
        {
          "internalType": "bool",
          "name": "",
          "type": "bool"
        }
      ],
      "stateMutability": "payable",
      "type": "function"
    }
  ],
  "bytecode": "0x60806040526001600260006101000a81548160ff021916908360ff16021790555060006004553480156200003257600080fd5b5062000053620000476200006060201b60201c565b6200006860201b60201c565b600180819055506200012c565b600033905090565b60008060009054906101000a900473ffffffffffffffffffffffffffffffffffffffff169050816000806101000a81548173ffffffffffffffffffffffffffffffffffffffff021916908373ffffffffffffffffffffffffffffffffffffffff1602179055508173ffffffffffffffffffffffffffffffffffffffff168173ffffffffffffffffffffffffffffffffffffffff167f8be0079c531659141344cd1fd0a4f28419497f9722a3daafe3b4186f6b6457e060405160405180910390a35050565b6149d6806200013c6000396000f3fe6080604052600436106101095760003560e01c80638441a7ce11610095578063cdd78cfc11610064578063cdd78cfc14610392578063dd08ac3c146103bd578063f0f3f2c8146103fa578063f2fde38b14610437578063f964d30d1461046057610109565b80638441a7ce146102b05780638c0dd79a146102ed5780638da5cb5b1461032a578063981e9c2b1461035557610109565b8063715018a6116100dc578063715018a6146101b75780637e020e06146101ce5780638042853f1461020b57806380d038291461024857806380fc9c0e1461027357610109565b806313114a9d1461010e578063476343ee146101395780634cd0cb281461015757806357b7a23514610187575b600080fd5b34801561011a57600080fd5b5061012361049d565b60405161013091906143d3565b60405180910390f35b6101416104a3565b60405161014e91906140d6565b60405180910390f35b610171600480360381019061016c9190613476565b610634565b60405161017e91906140d6565b60405180910390f35b6101a1600480360381019061019c9190613435565b610aa4565b6040516101ae91906140d6565b60405180910390f35b3480156101c357600080fd5b506101cc610e21565b005b3480156101da57600080fd5b506101f560048036038101906101f09190613476565b610ea9565b60405161020291906140d6565b60405180910390f35b34801561021757600080fd5b50610232600480360381019061022d91906135ab565b611289565b60405161023f91906140d6565b60405180910390f35b34801561025457600080fd5b5061025d611362565b60405161026a91906140b4565b60405180910390f35b34801561027f57600080fd5b5061029a600480360381019061029591906133e3565b6118b9565b6040516102a79190614472565b60405180910390f35b3480156102bc57600080fd5b506102d760048036038101906102d29190613476565b61190f565b6040516102e491906140d6565b60405180910390f35b3480156102f957600080fd5b50610314600480360381019061030f9190613517565b611bec565b60405161032191906140d6565b60405180910390f35b34801561033657600080fd5b5061033f611e53565b60405161034c9190614099565b60405180910390f35b34801561036157600080fd5b5061037c600480360381019061037791906134db565b611e7c565b60405161038991906140d6565b60405180910390f35b34801561039e57600080fd5b506103a7612299565b6040516103b49190614472565b60405180910390f35b3480156103c957600080fd5b506103e460048036038101906103df919061356f565b6122ac565b6040516103f191906140d6565b60405180910390f35b34801561040657600080fd5b50610421600480360381019061041c9190613476565b61286f565b60405161042e91906143b1565b60405180910390f35b34801561044357600080fd5b5061045e600480360381019061045991906133e3565b612e06565b005b34801561046c57600080fd5b506104876004803603810190610482919061349f565b612efe565b60405161049491906140d6565b60405180910390f35b60035481565b60006104ad612fff565b73ffffffffffffffffffffffffffffffffffffffff166104cb611e53565b73ffffffffffffffffffffffffffffffffffffffff1614610521576040517f08c379a000000000000000000000000000000000000000000000000000000000815260040161051890614291565b60405180910390fd5b60026001541415610567576040517f08c379a000000000000000000000000000000000000000000000000000000000815260040161055e90614371565b60405180910390fd5b600260018190555060003373ffffffffffffffffffffffffffffffffffffffff1660035460405161059790614084565b60006040518083038185875af1925050503d80600081146105d4576040519150601f19603f3d011682016040523d82523d6000602084013e6105d9565b606091505b505090508061061d576040517f08c379a000000000000000000000000000000000000000000000000000000000815260040161061490614111565b60405180910390fd5b600060038190555060019150506001808190555090565b600081600073ffffffffffffffffffffffffffffffffffffffff166005600083815260200190815260200160002060030160009054906101000a900473ffffffffffffffffffffffffffffffffffffffff1673ffffffffffffffffffffffffffffffffffffffff1614156106dd576040517f08c379a00000000000000000000000000000000000000000000000000000000081526004016106d490614391565b60405180910390fd5b826005600082815260200190815260200160002060030160009054906101000a900473ffffffffffffffffffffffffffffffffffffffff1673ffffffffffffffffffffffffffffffffffffffff163373ffffffffffffffffffffffffffffffffffffffff1614610782576040517f08c379a000000000000000000000000000000000000000000000000000000000815260040161077990614331565b60405180910390fd5b600260015414156107c8576040517f08c379a00000000000000000000000000000000000000000000000000000000081526004016107bf90614371565b60405180910390fd5b6002600181905550600073ffffffffffffffffffffffffffffffffffffffff166005600086815260200190815260200160002060040160009054906101000a900473ffffffffffffffffffffffffffffffffffffffff1673ffffffffffffffffffffffffffffffffffffffff1614610875576040517f08c379a000000000000000000000000000000000000000000000000000000000815260040161086c90614251565b60405180910390fd5b60006005600086815260200190815260200160002060030160009054906101000a900473ffffffffffffffffffffffffffffffffffffffff1673ffffffffffffffffffffffffffffffffffffffff1660056000878152602001908152602001600020600901546040516108e790614084565b60006040518083038185875af1925050503d8060008114610924576040519150601f19603f3d011682016040523d82523d6000602084013e610929565b606091505b505090508061096d576040517f08c379a000000000000000000000000000000000000000000000000000000000815260040161096490614111565b60405180910390fd5b600160045461097c91906146a0565b600481905550600560008681526020019081526020016000206000808201600090556001820160006109ae9190613101565b6002820160006109be9190613101565b6003820160006101000a81549073ffffffffffffffffffffffffffffffffffffffff02191690556004820160006101000a81549073ffffffffffffffffffffffffffffffffffffffff0219169055600582016000610a1c9190613141565b600682016000905560078201600090556008820160006101000a81549060ff02191690556009820160009055600a82016000610a589190613101565b50507f8c2a9a6341bba6c545de035fe1175518191d1ec50716506635b641372af17c5f85604051610a8991906143d3565b60405180910390a16001935050600180819055505050919050565b600080828060000190610ab7919061448d565b905011610af9576040517f08c379a0000000000000000000000000000000000000000000000000000000008152600401610af0906142d1565b60405180910390fd5b6000828060200190610b0b919061448d565b905011610b4d576040517f08c379a0000000000000000000000000000000000000000000000000000000008152600401610b44906142b1565b60405180910390fd5b6000826060013511610b94576040517f08c379a0000000000000000000000000000000000000000000000000000000008152600401610b8b906142f1565b60405180910390fd5b6000600260009054906101000a900460ff1660ff1660648460600135610bba91906145e4565b610bc49190614646565b90506000818460600135610bd8919061458e565b9050803414610c1c576040517f08c379a0000000000000000000000000000000000000000000000000000000008152600401610c1390614231565b60405180910390fd5b8160036000828254610c2e919061458e565b9250508190555060006004549050806005600083815260200190815260200160002060000181905550848060000190610c67919061448d565b600560008481526020019081526020016000206001019190610c8a929190613162565b50848060200190610c9b919061448d565b600560008481526020019081526020016000206002019190610cbe929190613162565b50336005600083815260200190815260200160002060030160006101000a81548173ffffffffffffffffffffffffffffffffffffffff021916908373ffffffffffffffffffffffffffffffffffffffff16021790555042600560008381526020019081526020016000206006018190555084606001356005600083815260200190815260200160002060090181905550846040016020810190610d61919061340c565b6005600083815260200190815260200160002060080160006101000a81548160ff02191690836001811115610dbf577f4e487b7100000000000000000000000000000000000000000000000000000000600052602160045260246000fd5b021790555060046000815480929190610dd79061480a565b91905055507f8a45995b3bd97464184b2e7562acf387cde114181bf8e6df2631de56aa2f553c8133604051610e0d9291906143ee565b60405180910390a160019350505050919050565b610e29612fff565b73ffffffffffffffffffffffffffffffffffffffff16610e47611e53565b73ffffffffffffffffffffffffffffffffffffffff1614610e9d576040517f08c379a0000000000000000000000000000000000000000000000000000000008152600401610e9490614291565b60405180910390fd5b610ea76000613007565b565b600081600073ffffffffffffffffffffffffffffffffffffffff166005600083815260200190815260200160002060030160009054906101000a900473ffffffffffffffffffffffffffffffffffffffff1673ffffffffffffffffffffffffffffffffffffffff161415610f52576040517f08c379a0000000000000000000000000000000000000000000000000000000008152600401610f4990614391565b60405180910390fd5b600073ffffffffffffffffffffffffffffffffffffffff166005600085815260200190815260200160002060040160009054906101000a900473ffffffffffffffffffffffffffffffffffffffff1673ffffffffffffffffffffffffffffffffffffffff1614610ff7576040517f08c379a0000000000000000000000000000000000000000000000000000000008152600401610fee90614251565b60405180910390fd5b60006001811115611031577f4e487b7100000000000000000000000000000000000000000000000000000000600052602160045260246000fd5b6005600085815260200190815260200160002060080160009054906101000a900460ff16600181111561108d577f4e487b7100000000000000000000000000000000000000000000000000000000600052602160045260246000fd5b141561112657336005600085815260200190815260200160002060040160006101000a81548173ffffffffffffffffffffffffffffffffffffffff021916908373ffffffffffffffffffffffffffffffffffffffff1602179055507fcf346ab23a9abaabaa0eb4683b99ec1de094de5e7255af7623cbe740d4c0f16283336040516111199291906143ee565b60405180910390a1611246565b6005600084815260200190815260200160002060050160405180604001604052803373ffffffffffffffffffffffffffffffffffffffff168152602001600660003373ffffffffffffffffffffffffffffffffffffffff1673ffffffffffffffffffffffffffffffffffffffff16815260200190815260200160002060009054906101000a900460ff1660ff168152509080600181540180825580915050600190039060005260206000200160009091909190915060008201518160000160006101000a81548173ffffffffffffffffffffffffffffffffffffffff021916908373ffffffffffffffffffffffffffffffffffffffff16021790555060208201518160000160146101000a81548160ff021916908360ff16021790555050505b7fd0c29249eeaf9985f097ffb6ebc855f42bef4b696cbde01984e1ebfec09a969883336040516112779291906143ee565b60405180910390a16001915050919050565b6000611293612fff565b73ffffffffffffffffffffffffffffffffffffffff166112b1611e53565b73ffffffffffffffffffffffffffffffffffffffff1614611307576040517f08c379a00000000000000000000000000000000000000000000000000000000081526004016112fe90614291565b60405180910390fd5b81600260006101000a81548160ff021916908360ff1602179055507f3417887ae5fbc941092ff601511bc0f4e3f14ae835bb881189b4c8148c651269826040516113519190614472565b60405180910390a160019050919050565b6060600060045467ffffffffffffffff8111156113a8577f4e487b7100000000000000000000000000000000000000000000000000000000600052604160045260246000fd5b6040519080825280602002602001820160405280156113e157816020015b6113ce6131e8565b8152602001906001900390816113c65790505b50905060005b6004548110156118b157600073ffffffffffffffffffffffffffffffffffffffff166005600083815260200190815260200160002060030160009054906101000a900473ffffffffffffffffffffffffffffffffffffffff1673ffffffffffffffffffffffffffffffffffffffff161461189e57600560008281526020019081526020016000206040518061016001604052908160008201548152602001600182018054611494906147d8565b80601f01602080910402602001604051908101604052809291908181526020018280546114c0906147d8565b801561150d5780601f106114e25761010080835404028352916020019161150d565b820191906000526020600020905b8154815290600101906020018083116114f057829003601f168201915b50505050508152602001600282018054611526906147d8565b80601f0160208091040260200160405190810160405280929190818152602001828054611552906147d8565b801561159f5780601f106115745761010080835404028352916020019161159f565b820191906000526020600020905b81548152906001019060200180831161158257829003601f168201915b505050505081526020016003820160009054906101000a900473ffffffffffffffffffffffffffffffffffffffff1673ffffffffffffffffffffffffffffffffffffffff1673ffffffffffffffffffffffffffffffffffffffff1681526020016004820160009054906101000a900473ffffffffffffffffffffffffffffffffffffffff1673ffffffffffffffffffffffffffffffffffffffff1673ffffffffffffffffffffffffffffffffffffffff16815260200160058201805480602002602001604051908101604052809291908181526020016000905b8282101561171a578382906000526020600020016040518060400160405290816000820160009054906101000a900473ffffffffffffffffffffffffffffffffffffffff1673ffffffffffffffffffffffffffffffffffffffff1673ffffffffffffffffffffffffffffffffffffffff1681526020016000820160149054906101000a900460ff1660ff1660ff168152505081526020019060010190611679565b50505050815260200160068201548152602001600782015481526020016008820160009054906101000a900460ff166001811115611781577f4e487b7100000000000000000000000000000000000000000000000000000000600052602160045260246000fd5b60018111156117b9577f4e487b7100000000000000000000000000000000000000000000000000000000600052602160045260246000fd5b815260200160098201548152602001600a820180546117d7906147d8565b80601f0160208091040260200160405190810160405280929190818152602001828054611803906147d8565b80156118505780601f1061182557610100808354040283529160200191611850565b820191906000526020600020905b81548152906001019060200180831161183357829003601f168201915b505050505081525050828281518110611892577f4e487b7100000000000000000000000000000000000000000000000000000000600052603260045260246000fd5b60200260200101819052505b80806118a99061480a565b9150506113e7565b508091505090565b6000600660008373ffffffffffffffffffffffffffffffffffffffff1673ffffffffffffffffffffffffffffffffffffffff16815260200190815260200160002060009054906101000a900460ff169050919050565b600081600073ffffffffffffffffffffffffffffffffffffffff166005600083815260200190815260200160002060030160009054906101000a900473ffffffffffffffffffffffffffffffffffffffff1673ffffffffffffffffffffffffffffffffffffffff1614156119b8576040517f08c379a00000000000000000000000000000000000000000000000000000000081526004016119af90614391565b60405180910390fd5b82600073ffffffffffffffffffffffffffffffffffffffff166005600083815260200190815260200160002060040160009054906101000a900473ffffffffffffffffffffffffffffffffffffffff1673ffffffffffffffffffffffffffffffffffffffff161415611a5f576040517f08c379a0000000000000000000000000000000000000000000000000000000008152600401611a5690614311565b60405180910390fd5b836005600082815260200190815260200160002060030160009054906101000a900473ffffffffffffffffffffffffffffffffffffffff1673ffffffffffffffffffffffffffffffffffffffff163373ffffffffffffffffffffffffffffffffffffffff161480611b3157506005600082815260200190815260200160002060040160009054906101000a900473ffffffffffffffffffffffffffffffffffffffff1673ffffffffffffffffffffffffffffffffffffffff163373ffffffffffffffffffffffffffffffffffffffff16145b611b70576040517f08c379a0000000000000000000000000000000000000000000000000000000008152600401611b67906140f1565b60405180910390fd5b6005600086815260200190815260200160002060040160006101000a81549073ffffffffffffffffffffffffffffffffffffffff02191690557f7a3b57e6353b0de4ffd1d33828ac55bc1e669409d8495eaa40ebfc5382ccd23385604051611bd891906143d3565b60405180910390a160019350505050919050565b600083600073ffffffffffffffffffffffffffffffffffffffff166005600083815260200190815260200160002060030160009054906101000a900473ffffffffffffffffffffffffffffffffffffffff1673ffffffffffffffffffffffffffffffffffffffff161415611c95576040517f08c379a0000000000000000000000000000000000000000000000000000000008152600401611c8c90614391565b60405180910390fd5b846005600082815260200190815260200160002060040160009054906101000a900473ffffffffffffffffffffffffffffffffffffffff1673ffffffffffffffffffffffffffffffffffffffff163373ffffffffffffffffffffffffffffffffffffffff1614611d3a576040517f08c379a0000000000000000000000000000000000000000000000000000000008152600401611d3190614191565b60405180910390fd5b60008585905011611d80576040517f08c379a0000000000000000000000000000000000000000000000000000000008152600401611d7790614131565b60405180910390fd5b600060056000888152602001908152602001600020600a018054611da3906147d8565b905014611de5576040517f08c379a0000000000000000000000000000000000000000000000000000000008152600401611ddc906141d1565b60405180910390fd5b848460056000898152602001908152602001600020600a019190611e0a929190613162565b507f4a24f05a82d55a33d232acaca2124e728d256ccba9173df82ab1231b38695ae4868686604051611e3e93929190614440565b60405180910390a16001925050509392505050565b60008060009054906101000a900473ffffffffffffffffffffffffffffffffffffffff16905090565b600082600073ffffffffffffffffffffffffffffffffffffffff166005600083815260200190815260200160002060030160009054906101000a900473ffffffffffffffffffffffffffffffffffffffff1673ffffffffffffffffffffffffffffffffffffffff161415611f25576040517f08c379a0000000000000000000000000000000000000000000000000000000008152600401611f1c90614391565b60405180910390fd5b836005600082815260200190815260200160002060030160009054906101000a900473ffffffffffffffffffffffffffffffffffffffff1673ffffffffffffffffffffffffffffffffffffffff163373ffffffffffffffffffffffffffffffffffffffff1614611fca576040517f08c379a0000000000000000000000000000000000000000000000000000000008152600401611fc190614331565b60405180910390fd5b84600180811115612004577f4e487b7100000000000000000000000000000000000000000000000000000000600052602160045260246000fd5b6005600083815260200190815260200160002060080160009054906101000a900460ff166001811115612060577f4e487b7100000000000000000000000000000000000000000000000000000000600052602160045260246000fd5b146120a0576040517f08c379a000000000000000000000000000000000000000000000000000000000815260040161209790614211565b60405180910390fd5b600073ffffffffffffffffffffffffffffffffffffffff168573ffffffffffffffffffffffffffffffffffffffff161415612110576040517f08c379a0000000000000000000000000000000000000000000000000000000008152600401612107906141b1565b60405180910390fd5b600073ffffffffffffffffffffffffffffffffffffffff166005600088815260200190815260200160002060040160009054906101000a900473ffffffffffffffffffffffffffffffffffffffff1673ffffffffffffffffffffffffffffffffffffffff16146121b5576040517f08c379a00000000000000000000000000000000000000000000000000000000081526004016121ac90614251565b60405180910390fd5b6121bf8686612efe565b6121fe576040517f08c379a00000000000000000000000000000000000000000000000000000000081526004016121f5906141f1565b60405180910390fd5b846005600088815260200190815260200160002060040160006101000a81548173ffffffffffffffffffffffffffffffffffffffff021916908373ffffffffffffffffffffffffffffffffffffffff1602179055507fcf346ab23a9abaabaa0eb4683b99ec1de094de5e7255af7623cbe740d4c0f1628686604051612284929190614417565b60405180910390a16001935050505092915050565b600260009054906101000a900460ff1681565b600082600073ffffffffffffffffffffffffffffffffffffffff166005600083815260200190815260200160002060030160009054906101000a900473ffffffffffffffffffffffffffffffffffffffff1673ffffffffffffffffffffffffffffffffffffffff161415612355576040517f08c379a000000000000000000000000000000000000000000000000000000000815260040161234c90614391565b60405180910390fd5b836005600082815260200190815260200160002060030160009054906101000a900473ffffffffffffffffffffffffffffffffffffffff1673ffffffffffffffffffffffffffffffffffffffff163373ffffffffffffffffffffffffffffffffffffffff16146123fa576040517f08c379a00000000000000000000000000000000000000000000000000000000081526004016123f190614331565b60405180910390fd5b84600073ffffffffffffffffffffffffffffffffffffffff166005600083815260200190815260200160002060040160009054906101000a900473ffffffffffffffffffffffffffffffffffffffff1673ffffffffffffffffffffffffffffffffffffffff1614156124a1576040517f08c379a000000000000000000000000000000000000000000000000000000000815260040161249890614311565b60405180910390fd5b600260015414156124e7576040517f08c379a00000000000000000000000000000000000000000000000000000000081526004016124de90614371565b60405180910390fd5b60026001819055506000600560008881526020019081526020016000206007015414612548576040517f08c379a000000000000000000000000000000000000000000000000000000000815260040161253f90614271565b60405180910390fd5b600060056000888152602001908152602001600020600a01805461256b906147d8565b9050116125ad576040517f08c379a00000000000000000000000000000000000000000000000000000000081526004016125a490614171565b60405180910390fd5b60058560ff1611156125f4576040517f08c379a00000000000000000000000000000000000000000000000000000000081526004016125eb90614351565b60405180910390fd5b42600560008881526020019081526020016000206007018190555061269e60066000600560008a815260200190815260200160002060040160009054906101000a900473ffffffffffffffffffffffffffffffffffffffff1673ffffffffffffffffffffffffffffffffffffffff1673ffffffffffffffffffffffffffffffffffffffff16815260200190815260200160002060009054906101000a900460ff1660ff16866130cb565b60066000600560008a815260200190815260200160002060040160009054906101000a900473ffffffffffffffffffffffffffffffffffffffff1673ffffffffffffffffffffffffffffffffffffffff1673ffffffffffffffffffffffffffffffffffffffff16815260200190815260200160002060006101000a81548160ff021916908360ff1602179055507f60d8df137e489b6216738e436244ca4700bd6d0c8371d3c8d9c80b54538111b98660405161275a91906143d3565b60405180910390a160006005600088815260200190815260200160002060040160009054906101000a900473ffffffffffffffffffffffffffffffffffffffff1673ffffffffffffffffffffffffffffffffffffffff1660056000898152602001908152602001600020600901546040516127d490614084565b60006040518083038185875af1925050503d8060008114612811576040519150601f19603f3d011682016040523d82523d6000602084013e612816565b606091505b505090508061285a576040517f08c379a000000000000000000000000000000000000000000000000000000000815260040161285190614111565b60405180910390fd5b60019450506001808190555050505092915050565b6128776131e8565b81600073ffffffffffffffffffffffffffffffffffffffff166005600083815260200190815260200160002060030160009054906101000a900473ffffffffffffffffffffffffffffffffffffffff1673ffffffffffffffffffffffffffffffffffffffff16141561291e576040517f08c379a000000000000000000000000000000000000000000000000000000000815260040161291590614391565b60405180910390fd5b6129266131e8565b6005600085815260200190815260200160002060000154816000018181525050600560008581526020019081526020016000206001018054612967906147d8565b80601f0160208091040260200160405190810160405280929190818152602001828054612993906147d8565b80156129e05780601f106129b5576101008083540402835291602001916129e0565b820191906000526020600020905b8154815290600101906020018083116129c357829003601f168201915b50505050508160200181905250600560008581526020019081526020016000206002018054612a0e906147d8565b80601f0160208091040260200160405190810160405280929190818152602001828054612a3a906147d8565b8015612a875780601f10612a5c57610100808354040283529160200191612a87565b820191906000526020600020905b815481529060010190602001808311612a6a57829003601f168201915b505050505081604001819052506005600085815260200190815260200160002060080160009054906101000a900460ff168161010001906001811115612af6577f4e487b7100000000000000000000000000000000000000000000000000000000600052602160045260246000fd5b90816001811115612b30577f4e487b7100000000000000000000000000000000000000000000000000000000600052602160045260246000fd5b815250506005600085815260200190815260200160002060030160009054906101000a900473ffffffffffffffffffffffffffffffffffffffff16816060019073ffffffffffffffffffffffffffffffffffffffff16908173ffffffffffffffffffffffffffffffffffffffff168152505060056000858152602001908152602001600020600501805480602002602001604051908101604052809291908181526020016000905b82821015612c79578382906000526020600020016040518060400160405290816000820160009054906101000a900473ffffffffffffffffffffffffffffffffffffffff1673ffffffffffffffffffffffffffffffffffffffff1673ffffffffffffffffffffffffffffffffffffffff1681526020016000820160149054906101000a900460ff1660ff1660ff168152505081526020019060010190612bd8565b505050508160a001819052506005600085815260200190815260200160002060040160009054906101000a900473ffffffffffffffffffffffffffffffffffffffff16816080019073ffffffffffffffffffffffffffffffffffffffff16908173ffffffffffffffffffffffffffffffffffffffff168152505060056000858152602001908152602001600020600601548160c001818152505060056000858152602001908152602001600020600701548160e001818152505060056000858152602001908152602001600020600901548161012001818152505060056000858152602001908152602001600020600a018054612d75906147d8565b80601f0160208091040260200160405190810160405280929190818152602001828054612da1906147d8565b8015612dee5780601f10612dc357610100808354040283529160200191612dee565b820191906000526020600020905b815481529060010190602001808311612dd157829003601f168201915b50505050508161014001819052508092505050919050565b612e0e612fff565b73ffffffffffffffffffffffffffffffffffffffff16612e2c611e53565b73ffffffffffffffffffffffffffffffffffffffff1614612e82576040517f08c379a0000000000000000000000000000000000000000000000000000000008152600401612e7990614291565b60405180910390fd5b600073ffffffffffffffffffffffffffffffffffffffff168173ffffffffffffffffffffffffffffffffffffffff161415612ef2576040517f08c379a0000000000000000000000000000000000000000000000000000000008152600401612ee990614151565b60405180910390fd5b612efb81613007565b50565b600080600090505b6005600085815260200190815260200160002060050180549050811015612ff3578273ffffffffffffffffffffffffffffffffffffffff16600560008681526020019081526020016000206005018281548110612f8c577f4e487b7100000000000000000000000000000000000000000000000000000000600052603260045260246000fd5b9060005260206000200160000160009054906101000a900473ffffffffffffffffffffffffffffffffffffffff1673ffffffffffffffffffffffffffffffffffffffff161415612fe0576001915050612ff9565b8080612feb9061480a565b915050612f06565b50600090505b92915050565b600033905090565b60008060009054906101000a900473ffffffffffffffffffffffffffffffffffffffff169050816000806101000a81548173ffffffffffffffffffffffffffffffffffffffff021916908373ffffffffffffffffffffffffffffffffffffffff1602179055508173ffffffffffffffffffffffffffffffffffffffff168173ffffffffffffffffffffffffffffffffffffffff167f8be0079c531659141344cd1fd0a4f28419497f9722a3daafe3b4186f6b6457e060405160405180910390a35050565b6000808314156130dd578190506130fb565b60028260ff16846130ee919061458e565b6130f89190614615565b90505b92915050565b50805461310d906147d8565b6000825580601f1061311f575061313e565b601f01602090049060005260206000209081019061313d91906132a6565b5b50565b508054600082559060005260206000209081019061315f91906132c3565b50565b82805461316e906147d8565b90600052602060002090601f01602090048101928261319057600085556131d7565b82601f106131a957803560ff19168380011785556131d7565b828001600101855582156131d7579182015b828111156131d65782358255916020019190600101906131bb565b5b5090506131e491906132a6565b5090565b604051806101600160405280600081526020016060815260200160608152602001600073ffffffffffffffffffffffffffffffffffffffff168152602001600073ffffffffffffffffffffffffffffffffffffffff16815260200160608152602001600081526020016000815260200160006001811115613292577f4e487b7100000000000000000000000000000000000000000000000000000000600052602160045260246000fd5b815260200160008152602001606081525090565b5b808211156132bf5760008160009055506001016132a7565b5090565b5b8082111561331157600080820160006101000a81549073ffffffffffffffffffffffffffffffffffffffff02191690556000820160146101000a81549060ff0219169055506001016132c4565b5090565b60008135905061332481614934565b92915050565b6000813590506133398161494b565b92915050565b60008135905061334e81614962565b92915050565b60008083601f84011261336657600080fd5b8235905067ffffffffffffffff81111561337f57600080fd5b60208301915083600182028301111561339757600080fd5b9250929050565b6000608082840312156133b057600080fd5b81905092915050565b6000813590506133c881614972565b92915050565b6000813590506133dd81614989565b92915050565b6000602082840312156133f557600080fd5b600061340384828501613315565b91505092915050565b60006020828403121561341e57600080fd5b600061342c8482850161333f565b91505092915050565b60006020828403121561344757600080fd5b600082013567ffffffffffffffff81111561346157600080fd5b61346d8482850161339e565b91505092915050565b60006020828403121561348857600080fd5b6000613496848285016133b9565b91505092915050565b600080604083850312156134b257600080fd5b60006134c0858286016133b9565b92505060206134d185828601613315565b9150509250929050565b600080604083850312156134ee57600080fd5b60006134fc858286016133b9565b925050602061350d8582860161332a565b9150509250929050565b60008060006040848603121561352c57600080fd5b600061353a868287016133b9565b935050602084013567ffffffffffffffff81111561355757600080fd5b61356386828701613354565b92509250509250925092565b6000806040838503121561358257600080fd5b6000613590858286016133b9565b92505060206135a1858286016133ce565b9150509250929050565b6000602082840312156135bd57600080fd5b60006135cb848285016133ce565b91505092915050565b60006135e08383613e11565b60408301905092915050565b60006135f88383613e40565b905092915050565b6136098161474e565b82525050565b613618816146e6565b82525050565b613627816146d4565b82525050565b613636816146d4565b82525050565b600061364782614504565b613651818561453f565b935061365c836144e4565b8060005b8381101561368d57815161367488826135d4565b975061367f83614525565b925050600181019050613660565b5085935050505092915050565b60006136a58261450f565b6136af8185614550565b9350836020820285016136c1856144f4565b8060005b858110156136fd57848403895281516136de85826135ec565b94506136e983614532565b925060208a019950506001810190506136c5565b50829750879550505050505092915050565b613718816146f8565b82525050565b61372781614760565b82525050565b6000613739838561457d565b9350613746838584614796565b61374f8361490f565b840190509392505050565b60006137658261451a565b61376f818561456c565b935061377f8185602086016147a5565b6137888161490f565b840191505092915050565b60006137a060358361457d565b91507f4f6e6c7920617574686f72206f722061737369676e65652063616e207065726660008301527f6f726d2074686973207472616e73616374696f6e2e00000000000000000000006020830152604082019050919050565b6000613806600f8361457d565b91507f5472616e666572206661696c65642e00000000000000000000000000000000006000830152602082019050919050565b600061384660178361457d565b91507f526573756c742063616e6e6f7420626520656d7074792e0000000000000000006000830152602082019050919050565b600061388660268361457d565b91507f4f776e61626c653a206e6577206f776e657220697320746865207a65726f206160008301527f64647265737300000000000000000000000000000000000000000000000000006020830152604082019050919050565b60006138ec60138361457d565b91507f526573756c742069732072657175697265642e000000000000000000000000006000830152602082019050919050565b600061392c602b8361457d565b91507f4f6e6c792061737369676e65652063616e20706572666f726d2074686973207460008301527f72616e73616374696f6e2e0000000000000000000000000000000000000000006020830152604082019050919050565b600061399260178361457d565b91507f5a65726f2061646472657373207375626d69747465642e0000000000000000006000830152602082019050919050565b60006139d260198361457d565b91507f526573756c7420616c7265616479207375626d69747465642e000000000000006000830152602082019050919050565b6000613a1260248361457d565b91507f41646472657373206469646e2774206170706c7920746f207468652070726f6a60008301527f6563742e000000000000000000000000000000000000000000000000000000006020830152604082019050919050565b6000613a7860238361457d565b91507f50726f6a6563742074797065206973206e6f7420417574686f7253656c65637460008301527f65642e00000000000000000000000000000000000000000000000000000000006020830152604082019050919050565b6000613ade60178361457d565b91507f57726f6e6720616d6f756e74207375626d69747465642e0000000000000000006000830152602082019050919050565b6000613b1e60198361457d565b91507f50726f6a65637420616c72656164792061737369676e65642e000000000000006000830152602082019050919050565b6000613b5e601a8361457d565b91507f50726f6a65637420616c726561647920636f6d706c657465642e0000000000006000830152602082019050919050565b6000613b9e60208361457d565b91507f4f776e61626c653a2063616c6c6572206973206e6f7420746865206f776e65726000830152602082019050919050565b6000613bde60188361457d565b91507f4465736372697074696f6e2069732072657175697265642e00000000000000006000830152602082019050919050565b6000613c1e60128361457d565b91507f5469746c652069732072657175697265642e00000000000000000000000000006000830152602082019050919050565b6000613c5e600083614561565b9150600082019050919050565b6000613c7860138361457d565b91507f5265776172642069732072657175697265642e000000000000000000000000006000830152602082019050919050565b6000613cb8601c8361457d565b91507f50726f6a656374206973206e6f742061737369676e6564207965742e000000006000830152602082019050919050565b6000613cf860298361457d565b91507f4f6e6c7920617574686f722063616e20706572666f726d20746869732074726160008301527f6e73616374696f6e2e00000000000000000000000000000000000000000000006020830152604082019050919050565b6000613d5e60128361457d565b91507f526174696e6720697320696e76616c69642e00000000000000000000000000006000830152602082019050919050565b6000613d9e601f8361457d565b91507f5265656e7472616e637947756172643a207265656e7472616e742063616c6c006000830152602082019050919050565b6000613dde60178361457d565b91507f50726f6a65637420646f6573206e6f742065786973742e0000000000000000006000830152602082019050919050565b604082016000820151613e27600085018261361e565b506020820151613e3a6020850182614066565b50505050565b600061016083016000830151613e596000860182614048565b5060208301518482036020860152613e71828261375a565b91505060408301518482036040860152613e8b828261375a565b9150506060830151613ea0606086018261360f565b506080830151613eb3608086018261360f565b5060a083015184820360a0860152613ecb828261363c565b91505060c0830151613ee060c0860182614048565b5060e0830151613ef360e0860182614048565b50610100830151613f0861010086018261371e565b50610120830151613f1d610120860182614048565b50610140830151848203610140860152613f37828261375a565b9150508091505092915050565b600061016083016000830151613f5d6000860182614048565b5060208301518482036020860152613f75828261375a565b91505060408301518482036040860152613f8f828261375a565b9150506060830151613fa4606086018261360f565b506080830151613fb7608086018261360f565b5060a083015184820360a0860152613fcf828261363c565b91505060c0830151613fe460c0860182614048565b5060e0830151613ff760e0860182614048565b5061010083015161400c61010086018261371e565b50610120830151614021610120860182614048565b5061014083015184820361014086015261403b828261375a565b9150508091505092915050565b61405181614737565b82525050565b61406081614737565b82525050565b61406f81614741565b82525050565b61407e81614741565b82525050565b600061408f82613c51565b9150819050919050565b60006020820190506140ae600083018461362d565b92915050565b600060208201905081810360008301526140ce818461369a565b905092915050565b60006020820190506140eb600083018461370f565b92915050565b6000602082019050818103600083015261410a81613793565b9050919050565b6000602082019050818103600083015261412a816137f9565b9050919050565b6000602082019050818103600083015261414a81613839565b9050919050565b6000602082019050818103600083015261416a81613879565b9050919050565b6000602082019050818103600083015261418a816138df565b9050919050565b600060208201905081810360008301526141aa8161391f565b9050919050565b600060208201905081810360008301526141ca81613985565b9050919050565b600060208201905081810360008301526141ea816139c5565b9050919050565b6000602082019050818103600083015261420a81613a05565b9050919050565b6000602082019050818103600083015261422a81613a6b565b9050919050565b6000602082019050818103600083015261424a81613ad1565b9050919050565b6000602082019050818103600083015261426a81613b11565b9050919050565b6000602082019050818103600083015261428a81613b51565b9050919050565b600060208201905081810360008301526142aa81613b91565b9050919050565b600060208201905081810360008301526142ca81613bd1565b9050919050565b600060208201905081810360008301526142ea81613c11565b9050919050565b6000602082019050818103600083015261430a81613c6b565b9050919050565b6000602082019050818103600083015261432a81613cab565b9050919050565b6000602082019050818103600083015261434a81613ceb565b9050919050565b6000602082019050818103600083015261436a81613d51565b9050919050565b6000602082019050818103600083015261438a81613d91565b9050919050565b600060208201905081810360008301526143aa81613dd1565b9050919050565b600060208201905081810360008301526143cb8184613f44565b905092915050565b60006020820190506143e86000830184614057565b92915050565b60006040820190506144036000830185614057565b614410602083018461362d565b9392505050565b600060408201905061442c6000830185614057565b6144396020830184613600565b9392505050565b60006040820190506144556000830186614057565b818103602083015261446881848661372d565b9050949350505050565b60006020820190506144876000830184614075565b92915050565b600080833560016020038436030381126144a657600080fd5b80840192508235915067ffffffffffffffff8211156144c457600080fd5b6020830192506001820236038313156144dc57600080fd5b509250929050565b6000819050602082019050919050565b6000819050602082019050919050565b600081519050919050565b600081519050919050565b600081519050919050565b6000602082019050919050565b6000602082019050919050565b600082825260208201905092915050565b600082825260208201905092915050565b600081905092915050565b600082825260208201905092915050565b600082825260208201905092915050565b600061459982614737565b91506145a483614737565b9250827fffffffffffffffffffffffffffffffffffffffffffffffffffffffffffffffff038211156145d9576145d8614853565b5b828201905092915050565b60006145ef82614737565b91506145fa83614737565b92508261460a57614609614882565b5b828204905092915050565b600061462082614741565b915061462b83614741565b92508261463b5761463a614882565b5b828204905092915050565b600061465182614737565b915061465c83614737565b9250817fffffffffffffffffffffffffffffffffffffffffffffffffffffffffffffffff048311821515161561469557614694614853565b5b828202905092915050565b60006146ab82614737565b91506146b683614737565b9250828210156146c9576146c8614853565b5b828203905092915050565b60006146df82614717565b9050919050565b60006146f182614717565b9050919050565b60008115159050919050565b600081905061471282614920565b919050565b600073ffffffffffffffffffffffffffffffffffffffff82169050919050565b6000819050919050565b600060ff82169050919050565b600061475982614772565b9050919050565b600061476b82614704565b9050919050565b600061477d82614784565b9050919050565b600061478f82614717565b9050919050565b82818337600083830152505050565b60005b838110156147c35780820151818401526020810190506147a8565b838111156147d2576000848401525b50505050565b600060028204905060018216806147f057607f821691505b60208210811415614804576148036148e0565b5b50919050565b600061481582614737565b91507fffffffffffffffffffffffffffffffffffffffffffffffffffffffffffffffff82141561484857614847614853565b5b600182019050919050565b7f4e487b7100000000000000000000000000000000000000000000000000000000600052601160045260246000fd5b7f4e487b7100000000000000000000000000000000000000000000000000000000600052601260045260246000fd5b7f4e487b7100000000000000000000000000000000000000000000000000000000600052602160045260246000fd5b7f4e487b7100000000000000000000000000000000000000000000000000000000600052602260045260246000fd5b6000601f19601f8301169050919050565b60028110614931576149306148b1565b5b50565b61493d816146d4565b811461494857600080fd5b50565b614954816146e6565b811461495f57600080fd5b50565b6002811061496f57600080fd5b50565b61497b81614737565b811461498657600080fd5b50565b61499281614741565b811461499d57600080fd5b5056fea26469706673582212209edbdd0be63cd29745d282066cb3b7a6a743bf1fae300196d5306daca20dbe2864736f6c63430008000033",
  "linkReferences": {},
  "deployedLinkReferences": {}
}