{
  "_format": "hh-sol-artifact-1",
  "contractName": "Platform",
  "sourceName": "contracts/Platform.sol",
  "abi": [
    {
      "anonymous": false,
      "inputs": [
        {
          "indexed": false,
          "internalType": "uint8",
          "name": "_fee",
          "type": "uint8"
        }
      ],
      "name": "FeeUpdated",
      "type": "event"
    },
    {
      "anonymous": false,
      "inputs": [
        {
          "indexed": true,
          "internalType": "address",
          "name": "previousOwner",
          "type": "address"
        },
        {
          "indexed": true,
          "internalType": "address",
          "name": "newOwner",
          "type": "address"
        }
      ],
      "name": "OwnershipTransferred",
      "type": "event"
    },
    {
      "anonymous": false,
      "inputs": [
        {
          "components": [
            {
              "internalType": "uint256",
              "name": "id",
              "type": "uint256"
            },
            {
              "internalType": "string",
              "name": "title",
              "type": "string"
            },
            {
              "internalType": "string",
              "name": "description",
              "type": "string"
            },
            {
              "internalType": "address payable",
              "name": "author",
              "type": "address"
            },
            {
              "internalType": "address payable",
              "name": "assignee",
              "type": "address"
            },
            {
              "components": [
                {
                  "internalType": "address",
                  "name": "candidate",
                  "type": "address"
                },
                {
                  "internalType": "uint8",
                  "name": "rating",
                  "type": "uint8"
                }
              ],
              "internalType": "struct Platform.Candidate[]",
              "name": "candidates",
              "type": "tuple[]"
            },
            {
              "internalType": "uint256",
              "name": "createdAt",
              "type": "uint256"
            },
            {
              "internalType": "uint256",
              "name": "completedAt",
              "type": "uint256"
            },
            {
              "internalType": "enum Platform.ProjectType",
              "name": "projectType",
              "type": "uint8"
            },
            {
              "internalType": "uint256",
              "name": "reward",
              "type": "uint256"
            },
            {
              "internalType": "string",
              "name": "result",
              "type": "string"
            }
          ],
          "indexed": false,
          "internalType": "struct Platform.Project",
          "name": "_project",
          "type": "tuple"
        }
      ],
      "name": "ProjectAdded",
      "type": "event"
    },
    {
      "anonymous": false,
      "inputs": [
        {
          "indexed": false,
          "internalType": "uint256",
          "name": "_id",
          "type": "uint256"
        }
      ],
      "name": "ProjectDeleted",
      "type": "event"
    },
    {
      "anonymous": false,
      "inputs": [
        {
          "components": [
            {
              "internalType": "uint256",
              "name": "id",
              "type": "uint256"
            },
            {
              "internalType": "string",
              "name": "title",
              "type": "string"
            },
            {
              "internalType": "string",
              "name": "description",
              "type": "string"
            },
            {
              "internalType": "address payable",
              "name": "author",
              "type": "address"
            },
            {
              "internalType": "address payable",
              "name": "assignee",
              "type": "address"
            },
            {
              "components": [
                {
                  "internalType": "address",
                  "name": "candidate",
                  "type": "address"
                },
                {
                  "internalType": "uint8",
                  "name": "rating",
                  "type": "uint8"
                }
              ],
              "internalType": "struct Platform.Candidate[]",
              "name": "candidates",
              "type": "tuple[]"
            },
            {
              "internalType": "uint256",
              "name": "createdAt",
              "type": "uint256"
            },
            {
              "internalType": "uint256",
              "name": "completedAt",
              "type": "uint256"
            },
            {
              "internalType": "enum Platform.ProjectType",
              "name": "projectType",
              "type": "uint8"
            },
            {
              "internalType": "uint256",
              "name": "reward",
              "type": "uint256"
            },
            {
              "internalType": "string",
              "name": "result",
              "type": "string"
            }
          ],
          "indexed": false,
          "internalType": "struct Platform.Project",
          "name": "_project",
          "type": "tuple"
        }
      ],
      "name": "ProjectUpdated",
      "type": "event"
    },
    {
      "inputs": [
        {
          "components": [
            {
              "internalType": "string",
              "name": "title",
              "type": "string"
            },
            {
              "internalType": "string",
              "name": "description",
              "type": "string"
            },
            {
              "internalType": "enum Platform.ProjectType",
              "name": "projectType",
              "type": "uint8"
            },
            {
              "internalType": "uint256",
              "name": "reward",
              "type": "uint256"
            }
          ],
          "internalType": "struct Platform.ReceivedProject",
          "name": "_newProject",
          "type": "tuple"
        }
      ],
      "name": "addProject",
      "outputs": [
        {
          "internalType": "bool",
          "name": "",
          "type": "bool"
        }
      ],
      "stateMutability": "payable",
      "type": "function"
    },
    {
      "inputs": [
        {
          "internalType": "uint256",
          "name": "_id",
          "type": "uint256"
        }
      ],
      "name": "applyForProject",
      "outputs": [
        {
          "internalType": "bool",
          "name": "",
          "type": "bool"
        }
      ],
      "stateMutability": "nonpayable",
      "type": "function"
    },
    {
      "inputs": [
        {
          "internalType": "uint256",
          "name": "_id",
          "type": "uint256"
        },
        {
          "internalType": "address payable",
          "name": "_candidateAddress",
          "type": "address"
        }
      ],
      "name": "assignProject",
      "outputs": [
        {
          "internalType": "bool",
          "name": "",
          "type": "bool"
        }
      ],
      "stateMutability": "nonpayable",
      "type": "function"
    },
    {
      "inputs": [
        {
          "internalType": "uint256",
          "name": "_id",
          "type": "uint256"
        },
        {
          "internalType": "uint8",
          "name": "_rating",
          "type": "uint8"
        }
      ],
      "name": "completeProject",
      "outputs": [
        {
          "internalType": "bool",
          "name": "",
          "type": "bool"
        }
      ],
      "stateMutability": "nonpayable",
      "type": "function"
    },
    {
      "inputs": [
        {
          "internalType": "uint256",
          "name": "_id",
          "type": "uint256"
        }
      ],
      "name": "deleteProject",
      "outputs": [
        {
          "internalType": "bool",
          "name": "",
          "type": "bool"
        }
      ],
      "stateMutability": "payable",
      "type": "function"
    },
    {
      "inputs": [],
      "name": "getAllProjects",
      "outputs": [
        {
          "components": [
            {
              "internalType": "uint256",
              "name": "id",
              "type": "uint256"
            },
            {
              "internalType": "string",
              "name": "title",
              "type": "string"
            },
            {
              "internalType": "string",
              "name": "description",
              "type": "string"
            },
            {
              "internalType": "address payable",
              "name": "author",
              "type": "address"
            },
            {
              "internalType": "address payable",
              "name": "assignee",
              "type": "address"
            },
            {
              "components": [
                {
                  "internalType": "address",
                  "name": "candidate",
                  "type": "address"
                },
                {
                  "internalType": "uint8",
                  "name": "rating",
                  "type": "uint8"
                }
              ],
              "internalType": "struct Platform.Candidate[]",
              "name": "candidates",
              "type": "tuple[]"
            },
            {
              "internalType": "uint256",
              "name": "createdAt",
              "type": "uint256"
            },
            {
              "internalType": "uint256",
              "name": "completedAt",
              "type": "uint256"
            },
            {
              "internalType": "enum Platform.ProjectType",
              "name": "projectType",
              "type": "uint8"
            },
            {
              "internalType": "uint256",
              "name": "reward",
              "type": "uint256"
            },
            {
              "internalType": "string",
              "name": "result",
              "type": "string"
            }
          ],
          "internalType": "struct Platform.Project[]",
          "name": "",
          "type": "tuple[]"
        }
      ],
      "stateMutability": "view",
      "type": "function"
    },
    {
      "inputs": [
        {
          "internalType": "uint256",
          "name": "_id",
          "type": "uint256"
        }
      ],
      "name": "getProject",
      "outputs": [
        {
          "components": [
            {
              "internalType": "uint256",
              "name": "id",
              "type": "uint256"
            },
            {
              "internalType": "string",
              "name": "title",
              "type": "string"
            },
            {
              "internalType": "string",
              "name": "description",
              "type": "string"
            },
            {
              "internalType": "address payable",
              "name": "author",
              "type": "address"
            },
            {
              "internalType": "address payable",
              "name": "assignee",
              "type": "address"
            },
            {
              "components": [
                {
                  "internalType": "address",
                  "name": "candidate",
                  "type": "address"
                },
                {
                  "internalType": "uint8",
                  "name": "rating",
                  "type": "uint8"
                }
              ],
              "internalType": "struct Platform.Candidate[]",
              "name": "candidates",
              "type": "tuple[]"
            },
            {
              "internalType": "uint256",
              "name": "createdAt",
              "type": "uint256"
            },
            {
              "internalType": "uint256",
              "name": "completedAt",
              "type": "uint256"
            },
            {
              "internalType": "enum Platform.ProjectType",
              "name": "projectType",
              "type": "uint8"
            },
            {
              "internalType": "uint256",
              "name": "reward",
              "type": "uint256"
            },
            {
              "internalType": "string",
              "name": "result",
              "type": "string"
            }
          ],
          "internalType": "struct Platform.Project",
          "name": "",
          "type": "tuple"
        }
      ],
      "stateMutability": "view",
      "type": "function"
    },
    {
      "inputs": [
        {
          "internalType": "address",
          "name": "_address",
          "type": "address"
        }
      ],
      "name": "getRating",
      "outputs": [
        {
          "internalType": "uint8",
          "name": "",
          "type": "uint8"
        }
      ],
      "stateMutability": "view",
      "type": "function"
    },
    {
      "inputs": [
        {
          "internalType": "uint256",
          "name": "_id",
          "type": "uint256"
        },
        {
          "internalType": "address",
          "name": "_address",
          "type": "address"
        }
      ],
      "name": "isAddressApplied",
      "outputs": [
        {
          "internalType": "bool",
          "name": "",
          "type": "bool"
        }
      ],
      "stateMutability": "view",
      "type": "function"
    },
    {
      "inputs": [],
      "name": "owner",
      "outputs": [
        {
          "internalType": "address",
          "name": "",
          "type": "address"
        }
      ],
      "stateMutability": "view",
      "type": "function"
    },
    {
      "inputs": [],
      "name": "platformFeePercentage",
      "outputs": [
        {
          "internalType": "uint8",
          "name": "",
          "type": "uint8"
        }
      ],
      "stateMutability": "view",
      "type": "function"
    },
    {
      "inputs": [],
      "name": "renounceOwnership",
      "outputs": [],
      "stateMutability": "nonpayable",
      "type": "function"
    },
    {
      "inputs": [
        {
          "internalType": "uint8",
          "name": "_fee",
          "type": "uint8"
        }
      ],
      "name": "setPlatformFee",
      "outputs": [
        {
          "internalType": "bool",
          "name": "",
          "type": "bool"
        }
      ],
      "stateMutability": "nonpayable",
      "type": "function"
    },
    {
      "inputs": [
        {
          "internalType": "uint256",
          "name": "_id",
          "type": "uint256"
        },
        {
          "internalType": "string",
          "name": "_result",
          "type": "string"
        }
      ],
      "name": "submitResult",
      "outputs": [
        {
          "internalType": "bool",
          "name": "",
          "type": "bool"
        }
      ],
      "stateMutability": "nonpayable",
      "type": "function"
    },
    {
      "inputs": [],
      "name": "totalFees",
      "outputs": [
        {
          "internalType": "uint256",
          "name": "",
          "type": "uint256"
        }
      ],
      "stateMutability": "view",
      "type": "function"
    },
    {
      "inputs": [
        {
          "internalType": "address",
          "name": "newOwner",
          "type": "address"
        }
      ],
      "name": "transferOwnership",
      "outputs": [],
      "stateMutability": "nonpayable",
      "type": "function"
    },
    {
      "inputs": [
        {
          "internalType": "uint256",
          "name": "_id",
          "type": "uint256"
        }
      ],
      "name": "unassignProject",
      "outputs": [
        {
          "internalType": "bool",
          "name": "",
          "type": "bool"
        }
      ],
      "stateMutability": "nonpayable",
      "type": "function"
    },
    {
      "inputs": [],
      "name": "withdrawFees",
      "outputs": [
        {
          "internalType": "bool",
          "name": "",
          "type": "bool"
        }
      ],
      "stateMutability": "payable",
      "type": "function"
    }
  ],
  "bytecode": "0x60806040526001600260006101000a81548160ff021916908360ff16021790555060006004553480156200003257600080fd5b5062000053620000476200006060201b60201c565b6200006860201b60201c565b600180819055506200012c565b600033905090565b60008060009054906101000a900473ffffffffffffffffffffffffffffffffffffffff169050816000806101000a81548173ffffffffffffffffffffffffffffffffffffffff021916908373ffffffffffffffffffffffffffffffffffffffff1602179055508173ffffffffffffffffffffffffffffffffffffffff168173ffffffffffffffffffffffffffffffffffffffff167f8be0079c531659141344cd1fd0a4f28419497f9722a3daafe3b4186f6b6457e060405160405180910390a35050565b614d28806200013c6000396000f3fe6080604052600436106101095760003560e01c80638441a7ce11610095578063cdd78cfc11610064578063cdd78cfc14610392578063dd08ac3c146103bd578063f0f3f2c8146103fa578063f2fde38b14610437578063f964d30d1461046057610109565b80638441a7ce146102b05780638c0dd79a146102ed5780638da5cb5b1461032a578063981e9c2b1461035557610109565b8063715018a6116100dc578063715018a6146101b75780637e020e06146101ce5780638042853f1461020b57806380d038291461024857806380fc9c0e1461027357610109565b806313114a9d1461010e578063476343ee146101395780634cd0cb281461015757806357b7a23514610187575b600080fd5b34801561011a57600080fd5b5061012361049d565b60405161013091906146ac565b60405180910390f35b6101416104a3565b60405161014e919061438d565b60405180910390f35b610171600480360381019061016c91906134e8565b610634565b60405161017e919061438d565b60405180910390f35b6101a1600480360381019061019c91906134a7565b610aa4565b6040516101ae919061438d565b60405180910390f35b3480156101c357600080fd5b506101cc610e31565b005b3480156101da57600080fd5b506101f560048036038101906101f091906134e8565b610eb9565b604051610202919061438d565b60405180910390f35b34801561021757600080fd5b50610232600480360381019061022d919061361d565b6112b9565b60405161023f919061438d565b60405180910390f35b34801561025457600080fd5b5061025d611392565b60405161026a919061436b565b60405180910390f35b34801561027f57600080fd5b5061029a60048036038101906102959190613455565b6118e9565b6040516102a791906146c7565b60405180910390f35b3480156102bc57600080fd5b506102d760048036038101906102d291906134e8565b61193f565b6040516102e4919061438d565b60405180910390f35b3480156102f957600080fd5b50610314600480360381019061030f9190613589565b611c2e565b604051610321919061438d565b60405180910390f35b34801561033657600080fd5b5061033f611ea3565b60405161034c9190614350565b60405180910390f35b34801561036157600080fd5b5061037c6004803603810190610377919061354d565b611ecc565b604051610389919061438d565b60405180910390f35b34801561039e57600080fd5b506103a76122f9565b6040516103b491906146c7565b60405180910390f35b3480156103c957600080fd5b506103e460048036038101906103df91906135e1565b61230c565b6040516103f1919061438d565b60405180910390f35b34801561040657600080fd5b50610421600480360381019061041c91906134e8565b6128e1565b60405161042e9190614668565b60405180910390f35b34801561044357600080fd5b5061045e60048036038101906104599190613455565b612e78565b005b34801561046c57600080fd5b5061048760048036038101906104829190613511565b612f70565b604051610494919061438d565b60405180910390f35b60035481565b60006104ad613071565b73ffffffffffffffffffffffffffffffffffffffff166104cb611ea3565b73ffffffffffffffffffffffffffffffffffffffff1614610521576040517f08c379a000000000000000000000000000000000000000000000000000000000815260040161051890614548565b60405180910390fd5b60026001541415610567576040517f08c379a000000000000000000000000000000000000000000000000000000000815260040161055e90614628565b60405180910390fd5b600260018190555060003373ffffffffffffffffffffffffffffffffffffffff166003546040516105979061433b565b60006040518083038185875af1925050503d80600081146105d4576040519150601f19603f3d011682016040523d82523d6000602084013e6105d9565b606091505b505090508061061d576040517f08c379a0000000000000000000000000000000000000000000000000000000008152600401610614906143c8565b60405180910390fd5b600060038190555060019150506001808190555090565b600081600073ffffffffffffffffffffffffffffffffffffffff166005600083815260200190815260200160002060030160009054906101000a900473ffffffffffffffffffffffffffffffffffffffff1673ffffffffffffffffffffffffffffffffffffffff1614156106dd576040517f08c379a00000000000000000000000000000000000000000000000000000000081526004016106d490614648565b60405180910390fd5b826005600082815260200190815260200160002060030160009054906101000a900473ffffffffffffffffffffffffffffffffffffffff1673ffffffffffffffffffffffffffffffffffffffff163373ffffffffffffffffffffffffffffffffffffffff1614610782576040517f08c379a0000000000000000000000000000000000000000000000000000000008152600401610779906145e8565b60405180910390fd5b600260015414156107c8576040517f08c379a00000000000000000000000000000000000000000000000000000000081526004016107bf90614628565b60405180910390fd5b6002600181905550600073ffffffffffffffffffffffffffffffffffffffff166005600086815260200190815260200160002060040160009054906101000a900473ffffffffffffffffffffffffffffffffffffffff1673ffffffffffffffffffffffffffffffffffffffff1614610875576040517f08c379a000000000000000000000000000000000000000000000000000000000815260040161086c90614508565b60405180910390fd5b60006005600086815260200190815260200160002060030160009054906101000a900473ffffffffffffffffffffffffffffffffffffffff1673ffffffffffffffffffffffffffffffffffffffff1660056000878152602001908152602001600020600901546040516108e79061433b565b60006040518083038185875af1925050503d8060008114610924576040519150601f19603f3d011682016040523d82523d6000602084013e610929565b606091505b505090508061096d576040517f08c379a0000000000000000000000000000000000000000000000000000000008152600401610964906143c8565b60405180910390fd5b600160045461097c9190614937565b600481905550600560008681526020019081526020016000206000808201600090556001820160006109ae9190613173565b6002820160006109be9190613173565b6003820160006101000a81549073ffffffffffffffffffffffffffffffffffffffff02191690556004820160006101000a81549073ffffffffffffffffffffffffffffffffffffffff0219169055600582016000610a1c91906131b3565b600682016000905560078201600090556008820160006101000a81549060ff02191690556009820160009055600a82016000610a589190613173565b50507f8c2a9a6341bba6c545de035fe1175518191d1ec50716506635b641372af17c5f85604051610a8991906146ac565b60405180910390a16001935050600180819055505050919050565b600080828060000190610ab791906146e2565b905011610af9576040517f08c379a0000000000000000000000000000000000000000000000000000000008152600401610af090614588565b60405180910390fd5b6000828060200190610b0b91906146e2565b905011610b4d576040517f08c379a0000000000000000000000000000000000000000000000000000000008152600401610b4490614568565b60405180910390fd5b6000826060013511610b94576040517f08c379a0000000000000000000000000000000000000000000000000000000008152600401610b8b906145a8565b60405180910390fd5b6000600260009054906101000a900460ff1660ff1660648460600135610bba919061487b565b610bc491906148dd565b90506000818460600135610bd89190614825565b9050803414610c1c576040517f08c379a0000000000000000000000000000000000000000000000000000000008152600401610c13906144e8565b60405180910390fd5b8160036000828254610c2e9190614825565b9250508190555060006004549050806005600083815260200190815260200160002060000181905550848060000190610c6791906146e2565b600560008481526020019081526020016000206001019190610c8a9291906131d4565b50848060200190610c9b91906146e2565b600560008481526020019081526020016000206002019190610cbe9291906131d4565b50336005600083815260200190815260200160002060030160006101000a81548173ffffffffffffffffffffffffffffffffffffffff021916908373ffffffffffffffffffffffffffffffffffffffff16021790555042600560008381526020019081526020016000206006018190555084606001356005600083815260200190815260200160002060090181905550846040016020810190610d61919061347e565b6005600083815260200190815260200160002060080160006101000a81548160ff02191690836001811115610dbf577f4e487b7100000000000000000000000000000000000000000000000000000000600052602160045260246000fd5b021790555060046000815480929190610dd790614b42565b91905055507fadc433005e1871184e921cc3c04de778a72a48c9b3799b8b51171f73803e35c960056000838152602001908152602001600020604051610e1d919061468a565b60405180910390a160019350505050919050565b610e39613071565b73ffffffffffffffffffffffffffffffffffffffff16610e57611ea3565b73ffffffffffffffffffffffffffffffffffffffff1614610ead576040517f08c379a0000000000000000000000000000000000000000000000000000000008152600401610ea490614548565b60405180910390fd5b610eb76000613079565b565b600081600073ffffffffffffffffffffffffffffffffffffffff166005600083815260200190815260200160002060030160009054906101000a900473ffffffffffffffffffffffffffffffffffffffff1673ffffffffffffffffffffffffffffffffffffffff161415610f62576040517f08c379a0000000000000000000000000000000000000000000000000000000008152600401610f5990614648565b60405180910390fd5b600073ffffffffffffffffffffffffffffffffffffffff166005600085815260200190815260200160002060040160009054906101000a900473ffffffffffffffffffffffffffffffffffffffff1673ffffffffffffffffffffffffffffffffffffffff1614611007576040517f08c379a0000000000000000000000000000000000000000000000000000000008152600401610ffe90614508565b60405180910390fd5b60006001811115611041577f4e487b7100000000000000000000000000000000000000000000000000000000600052602160045260246000fd5b6005600085815260200190815260200160002060080160009054906101000a900460ff16600181111561109d577f4e487b7100000000000000000000000000000000000000000000000000000000600052602160045260246000fd5b141561114657336005600085815260200190815260200160002060040160006101000a81548173ffffffffffffffffffffffffffffffffffffffff021916908373ffffffffffffffffffffffffffffffffffffffff1602179055507fd5db4e5677de7186f05506a2fd05c0b53da44458b65b0f409cfb533ecb3a613460056000858152602001908152602001600020604051611139919061468a565b60405180910390a1611266565b6005600084815260200190815260200160002060050160405180604001604052803373ffffffffffffffffffffffffffffffffffffffff168152602001600660003373ffffffffffffffffffffffffffffffffffffffff1673ffffffffffffffffffffffffffffffffffffffff16815260200190815260200160002060009054906101000a900460ff1660ff168152509080600181540180825580915050600190039060005260206000200160009091909190915060008201518160000160006101000a81548173ffffffffffffffffffffffffffffffffffffffff021916908373ffffffffffffffffffffffffffffffffffffffff16021790555060208201518160000160146101000a81548160ff021916908360ff16021790555050505b7fd5db4e5677de7186f05506a2fd05c0b53da44458b65b0f409cfb533ecb3a6134600560008581526020019081526020016000206040516112a7919061468a565b60405180910390a16001915050919050565b60006112c3613071565b73ffffffffffffffffffffffffffffffffffffffff166112e1611ea3565b73ffffffffffffffffffffffffffffffffffffffff1614611337576040517f08c379a000000000000000000000000000000000000000000000000000000000815260040161132e90614548565b60405180910390fd5b81600260006101000a81548160ff021916908360ff1602179055507f3417887ae5fbc941092ff601511bc0f4e3f14ae835bb881189b4c8148c6512698260405161138191906146c7565b60405180910390a160019050919050565b6060600060045467ffffffffffffffff8111156113d8577f4e487b7100000000000000000000000000000000000000000000000000000000600052604160045260246000fd5b60405190808252806020026020018201604052801561141157816020015b6113fe61325a565b8152602001906001900390816113f65790505b50905060005b6004548110156118e157600073ffffffffffffffffffffffffffffffffffffffff166005600083815260200190815260200160002060030160009054906101000a900473ffffffffffffffffffffffffffffffffffffffff1673ffffffffffffffffffffffffffffffffffffffff16146118ce576005600082815260200190815260200160002060405180610160016040529081600082015481526020016001820180546114c490614a8e565b80601f01602080910402602001604051908101604052809291908181526020018280546114f090614a8e565b801561153d5780601f106115125761010080835404028352916020019161153d565b820191906000526020600020905b81548152906001019060200180831161152057829003601f168201915b5050505050815260200160028201805461155690614a8e565b80601f016020809104026020016040519081016040528092919081815260200182805461158290614a8e565b80156115cf5780601f106115a4576101008083540402835291602001916115cf565b820191906000526020600020905b8154815290600101906020018083116115b257829003601f168201915b505050505081526020016003820160009054906101000a900473ffffffffffffffffffffffffffffffffffffffff1673ffffffffffffffffffffffffffffffffffffffff1673ffffffffffffffffffffffffffffffffffffffff1681526020016004820160009054906101000a900473ffffffffffffffffffffffffffffffffffffffff1673ffffffffffffffffffffffffffffffffffffffff1673ffffffffffffffffffffffffffffffffffffffff16815260200160058201805480602002602001604051908101604052809291908181526020016000905b8282101561174a578382906000526020600020016040518060400160405290816000820160009054906101000a900473ffffffffffffffffffffffffffffffffffffffff1673ffffffffffffffffffffffffffffffffffffffff1673ffffffffffffffffffffffffffffffffffffffff1681526020016000820160149054906101000a900460ff1660ff1660ff1681525050815260200190600101906116a9565b50505050815260200160068201548152602001600782015481526020016008820160009054906101000a900460ff1660018111156117b1577f4e487b7100000000000000000000000000000000000000000000000000000000600052602160045260246000fd5b60018111156117e9577f4e487b7100000000000000000000000000000000000000000000000000000000600052602160045260246000fd5b815260200160098201548152602001600a8201805461180790614a8e565b80601f016020809104026020016040519081016040528092919081815260200182805461183390614a8e565b80156118805780601f1061185557610100808354040283529160200191611880565b820191906000526020600020905b81548152906001019060200180831161186357829003601f168201915b5050505050815250508282815181106118c2577f4e487b7100000000000000000000000000000000000000000000000000000000600052603260045260246000fd5b60200260200101819052505b80806118d990614b42565b915050611417565b508091505090565b6000600660008373ffffffffffffffffffffffffffffffffffffffff1673ffffffffffffffffffffffffffffffffffffffff16815260200190815260200160002060009054906101000a900460ff169050919050565b600081600073ffffffffffffffffffffffffffffffffffffffff166005600083815260200190815260200160002060030160009054906101000a900473ffffffffffffffffffffffffffffffffffffffff1673ffffffffffffffffffffffffffffffffffffffff1614156119e8576040517f08c379a00000000000000000000000000000000000000000000000000000000081526004016119df90614648565b60405180910390fd5b82600073ffffffffffffffffffffffffffffffffffffffff166005600083815260200190815260200160002060040160009054906101000a900473ffffffffffffffffffffffffffffffffffffffff1673ffffffffffffffffffffffffffffffffffffffff161415611a8f576040517f08c379a0000000000000000000000000000000000000000000000000000000008152600401611a86906145c8565b60405180910390fd5b836005600082815260200190815260200160002060030160009054906101000a900473ffffffffffffffffffffffffffffffffffffffff1673ffffffffffffffffffffffffffffffffffffffff163373ffffffffffffffffffffffffffffffffffffffff161480611b6157506005600082815260200190815260200160002060040160009054906101000a900473ffffffffffffffffffffffffffffffffffffffff1673ffffffffffffffffffffffffffffffffffffffff163373ffffffffffffffffffffffffffffffffffffffff16145b611ba0576040517f08c379a0000000000000000000000000000000000000000000000000000000008152600401611b97906143a8565b60405180910390fd5b6005600086815260200190815260200160002060040160006101000a81549073ffffffffffffffffffffffffffffffffffffffff02191690557fd5db4e5677de7186f05506a2fd05c0b53da44458b65b0f409cfb533ecb3a613460056000878152602001908152602001600020604051611c1a919061468a565b60405180910390a160019350505050919050565b600083600073ffffffffffffffffffffffffffffffffffffffff166005600083815260200190815260200160002060030160009054906101000a900473ffffffffffffffffffffffffffffffffffffffff1673ffffffffffffffffffffffffffffffffffffffff161415611cd7576040517f08c379a0000000000000000000000000000000000000000000000000000000008152600401611cce90614648565b60405180910390fd5b846005600082815260200190815260200160002060040160009054906101000a900473ffffffffffffffffffffffffffffffffffffffff1673ffffffffffffffffffffffffffffffffffffffff163373ffffffffffffffffffffffffffffffffffffffff1614611d7c576040517f08c379a0000000000000000000000000000000000000000000000000000000008152600401611d7390614448565b60405180910390fd5b60008585905011611dc2576040517f08c379a0000000000000000000000000000000000000000000000000000000008152600401611db9906143e8565b60405180910390fd5b600060056000888152602001908152602001600020600a018054611de590614a8e565b905014611e27576040517f08c379a0000000000000000000000000000000000000000000000000000000008152600401611e1e90614488565b60405180910390fd5b848460056000898152602001908152602001600020600a019190611e4c9291906131d4565b507fd5db4e5677de7186f05506a2fd05c0b53da44458b65b0f409cfb533ecb3a613460056000888152602001908152602001600020604051611e8e919061468a565b60405180910390a16001925050509392505050565b60008060009054906101000a900473ffffffffffffffffffffffffffffffffffffffff16905090565b600082600073ffffffffffffffffffffffffffffffffffffffff166005600083815260200190815260200160002060030160009054906101000a900473ffffffffffffffffffffffffffffffffffffffff1673ffffffffffffffffffffffffffffffffffffffff161415611f75576040517f08c379a0000000000000000000000000000000000000000000000000000000008152600401611f6c90614648565b60405180910390fd5b836005600082815260200190815260200160002060030160009054906101000a900473ffffffffffffffffffffffffffffffffffffffff1673ffffffffffffffffffffffffffffffffffffffff163373ffffffffffffffffffffffffffffffffffffffff161461201a576040517f08c379a0000000000000000000000000000000000000000000000000000000008152600401612011906145e8565b60405180910390fd5b84600180811115612054577f4e487b7100000000000000000000000000000000000000000000000000000000600052602160045260246000fd5b6005600083815260200190815260200160002060080160009054906101000a900460ff1660018111156120b0577f4e487b7100000000000000000000000000000000000000000000000000000000600052602160045260246000fd5b146120f0576040517f08c379a00000000000000000000000000000000000000000000000000000000081526004016120e7906144c8565b60405180910390fd5b600073ffffffffffffffffffffffffffffffffffffffff168573ffffffffffffffffffffffffffffffffffffffff161415612160576040517f08c379a000000000000000000000000000000000000000000000000000000000815260040161215790614468565b60405180910390fd5b600073ffffffffffffffffffffffffffffffffffffffff166005600088815260200190815260200160002060040160009054906101000a900473ffffffffffffffffffffffffffffffffffffffff1673ffffffffffffffffffffffffffffffffffffffff1614612205576040517f08c379a00000000000000000000000000000000000000000000000000000000081526004016121fc90614508565b60405180910390fd5b61220f8686612f70565b61224e576040517f08c379a0000000000000000000000000000000000000000000000000000000008152600401612245906144a8565b60405180910390fd5b846005600088815260200190815260200160002060040160006101000a81548173ffffffffffffffffffffffffffffffffffffffff021916908373ffffffffffffffffffffffffffffffffffffffff1602179055507fd5db4e5677de7186f05506a2fd05c0b53da44458b65b0f409cfb533ecb3a6134600560008881526020019081526020016000206040516122e4919061468a565b60405180910390a16001935050505092915050565b600260009054906101000a900460ff1681565b600082600073ffffffffffffffffffffffffffffffffffffffff166005600083815260200190815260200160002060030160009054906101000a900473ffffffffffffffffffffffffffffffffffffffff1673ffffffffffffffffffffffffffffffffffffffff1614156123b5576040517f08c379a00000000000000000000000000000000000000000000000000000000081526004016123ac90614648565b60405180910390fd5b836005600082815260200190815260200160002060030160009054906101000a900473ffffffffffffffffffffffffffffffffffffffff1673ffffffffffffffffffffffffffffffffffffffff163373ffffffffffffffffffffffffffffffffffffffff161461245a576040517f08c379a0000000000000000000000000000000000000000000000000000000008152600401612451906145e8565b60405180910390fd5b84600073ffffffffffffffffffffffffffffffffffffffff166005600083815260200190815260200160002060040160009054906101000a900473ffffffffffffffffffffffffffffffffffffffff1673ffffffffffffffffffffffffffffffffffffffff161415612501576040517f08c379a00000000000000000000000000000000000000000000000000000000081526004016124f8906145c8565b60405180910390fd5b60026001541415612547576040517f08c379a000000000000000000000000000000000000000000000000000000000815260040161253e90614628565b60405180910390fd5b600260018190555060006005600088815260200190815260200160002060070154146125a8576040517f08c379a000000000000000000000000000000000000000000000000000000000815260040161259f90614528565b60405180910390fd5b600060056000888152602001908152602001600020600a0180546125cb90614a8e565b90501161260d576040517f08c379a000000000000000000000000000000000000000000000000000000000815260040161260490614428565b60405180910390fd5b60058560ff161115612654576040517f08c379a000000000000000000000000000000000000000000000000000000000815260040161264b90614608565b60405180910390fd5b4260056000888152602001908152602001600020600701819055506126fe60066000600560008a815260200190815260200160002060040160009054906101000a900473ffffffffffffffffffffffffffffffffffffffff1673ffffffffffffffffffffffffffffffffffffffff1673ffffffffffffffffffffffffffffffffffffffff16815260200190815260200160002060009054906101000a900460ff1660ff168661313d565b60066000600560008a815260200190815260200160002060040160009054906101000a900473ffffffffffffffffffffffffffffffffffffffff1673ffffffffffffffffffffffffffffffffffffffff1673ffffffffffffffffffffffffffffffffffffffff16815260200190815260200160002060006101000a81548160ff021916908360ff16021790555060006005600088815260200190815260200160002060040160009054906101000a900473ffffffffffffffffffffffffffffffffffffffff1673ffffffffffffffffffffffffffffffffffffffff1660056000898152602001908152602001600020600901546040516127fd9061433b565b60006040518083038185875af1925050503d806000811461283a576040519150601f19603f3d011682016040523d82523d6000602084013e61283f565b606091505b5050905080612883576040517f08c379a000000000000000000000000000000000000000000000000000000000815260040161287a906143c8565b60405180910390fd5b7fd5db4e5677de7186f05506a2fd05c0b53da44458b65b0f409cfb533ecb3a6134600560008981526020019081526020016000206040516128c4919061468a565b60405180910390a160019450506001808190555050505092915050565b6128e961325a565b81600073ffffffffffffffffffffffffffffffffffffffff166005600083815260200190815260200160002060030160009054906101000a900473ffffffffffffffffffffffffffffffffffffffff1673ffffffffffffffffffffffffffffffffffffffff161415612990576040517f08c379a000000000000000000000000000000000000000000000000000000000815260040161298790614648565b60405180910390fd5b61299861325a565b60056000858152602001908152602001600020600001548160000181815250506005600085815260200190815260200160002060010180546129d990614a8e565b80601f0160208091040260200160405190810160405280929190818152602001828054612a0590614a8e565b8015612a525780601f10612a2757610100808354040283529160200191612a52565b820191906000526020600020905b815481529060010190602001808311612a3557829003601f168201915b50505050508160200181905250600560008581526020019081526020016000206002018054612a8090614a8e565b80601f0160208091040260200160405190810160405280929190818152602001828054612aac90614a8e565b8015612af95780601f10612ace57610100808354040283529160200191612af9565b820191906000526020600020905b815481529060010190602001808311612adc57829003601f168201915b505050505081604001819052506005600085815260200190815260200160002060080160009054906101000a900460ff168161010001906001811115612b68577f4e487b7100000000000000000000000000000000000000000000000000000000600052602160045260246000fd5b90816001811115612ba2577f4e487b7100000000000000000000000000000000000000000000000000000000600052602160045260246000fd5b815250506005600085815260200190815260200160002060030160009054906101000a900473ffffffffffffffffffffffffffffffffffffffff16816060019073ffffffffffffffffffffffffffffffffffffffff16908173ffffffffffffffffffffffffffffffffffffffff168152505060056000858152602001908152602001600020600501805480602002602001604051908101604052809291908181526020016000905b82821015612ceb578382906000526020600020016040518060400160405290816000820160009054906101000a900473ffffffffffffffffffffffffffffffffffffffff1673ffffffffffffffffffffffffffffffffffffffff1673ffffffffffffffffffffffffffffffffffffffff1681526020016000820160149054906101000a900460ff1660ff1660ff168152505081526020019060010190612c4a565b505050508160a001819052506005600085815260200190815260200160002060040160009054906101000a900473ffffffffffffffffffffffffffffffffffffffff16816080019073ffffffffffffffffffffffffffffffffffffffff16908173ffffffffffffffffffffffffffffffffffffffff168152505060056000858152602001908152602001600020600601548160c001818152505060056000858152602001908152602001600020600701548160e001818152505060056000858152602001908152602001600020600901548161012001818152505060056000858152602001908152602001600020600a018054612de790614a8e565b80601f0160208091040260200160405190810160405280929190818152602001828054612e1390614a8e565b8015612e605780601f10612e3557610100808354040283529160200191612e60565b820191906000526020600020905b815481529060010190602001808311612e4357829003601f168201915b50505050508161014001819052508092505050919050565b612e80613071565b73ffffffffffffffffffffffffffffffffffffffff16612e9e611ea3565b73ffffffffffffffffffffffffffffffffffffffff1614612ef4576040517f08c379a0000000000000000000000000000000000000000000000000000000008152600401612eeb90614548565b60405180910390fd5b600073ffffffffffffffffffffffffffffffffffffffff168173ffffffffffffffffffffffffffffffffffffffff161415612f64576040517f08c379a0000000000000000000000000000000000000000000000000000000008152600401612f5b90614408565b60405180910390fd5b612f6d81613079565b50565b600080600090505b6005600085815260200190815260200160002060050180549050811015613065578273ffffffffffffffffffffffffffffffffffffffff16600560008681526020019081526020016000206005018281548110612ffe577f4e487b7100000000000000000000000000000000000000000000000000000000600052603260045260246000fd5b9060005260206000200160000160009054906101000a900473ffffffffffffffffffffffffffffffffffffffff1673ffffffffffffffffffffffffffffffffffffffff16141561305257600191505061306b565b808061305d90614b42565b915050612f78565b50600090505b92915050565b600033905090565b60008060009054906101000a900473ffffffffffffffffffffffffffffffffffffffff169050816000806101000a81548173ffffffffffffffffffffffffffffffffffffffff021916908373ffffffffffffffffffffffffffffffffffffffff1602179055508173ffffffffffffffffffffffffffffffffffffffff168173ffffffffffffffffffffffffffffffffffffffff167f8be0079c531659141344cd1fd0a4f28419497f9722a3daafe3b4186f6b6457e060405160405180910390a35050565b60008083141561314f5781905061316d565b60028260ff16846131609190614825565b61316a91906148ac565b90505b92915050565b50805461317f90614a8e565b6000825580601f1061319157506131b0565b601f0160209004906000526020600020908101906131af9190613318565b5b50565b50805460008255906000526020600020908101906131d19190613335565b50565b8280546131e090614a8e565b90600052602060002090601f0160209004810192826132025760008555613249565b82601f1061321b57803560ff1916838001178555613249565b82800160010185558215613249579182015b8281111561324857823582559160200191906001019061322d565b5b5090506132569190613318565b5090565b604051806101600160405280600081526020016060815260200160608152602001600073ffffffffffffffffffffffffffffffffffffffff168152602001600073ffffffffffffffffffffffffffffffffffffffff16815260200160608152602001600081526020016000815260200160006001811115613304577f4e487b7100000000000000000000000000000000000000000000000000000000600052602160045260246000fd5b815260200160008152602001606081525090565b5b80821115613331576000816000905550600101613319565b5090565b5b8082111561338357600080820160006101000a81549073ffffffffffffffffffffffffffffffffffffffff02191690556000820160146101000a81549060ff021916905550600101613336565b5090565b60008135905061339681614c86565b92915050565b6000813590506133ab81614c9d565b92915050565b6000813590506133c081614cb4565b92915050565b60008083601f8401126133d857600080fd5b8235905067ffffffffffffffff8111156133f157600080fd5b60208301915083600182028301111561340957600080fd5b9250929050565b60006080828403121561342257600080fd5b81905092915050565b60008135905061343a81614cc4565b92915050565b60008135905061344f81614cdb565b92915050565b60006020828403121561346757600080fd5b600061347584828501613387565b91505092915050565b60006020828403121561349057600080fd5b600061349e848285016133b1565b91505092915050565b6000602082840312156134b957600080fd5b600082013567ffffffffffffffff8111156134d357600080fd5b6134df84828501613410565b91505092915050565b6000602082840312156134fa57600080fd5b60006135088482850161342b565b91505092915050565b6000806040838503121561352457600080fd5b60006135328582860161342b565b925050602061354385828601613387565b9150509250929050565b6000806040838503121561356057600080fd5b600061356e8582860161342b565b925050602061357f8582860161339c565b9150509250929050565b60008060006040848603121561359e57600080fd5b60006135ac8682870161342b565b935050602084013567ffffffffffffffff8111156135c957600080fd5b6135d5868287016133c6565b92509250509250925092565b600080604083850312156135f457600080fd5b60006136028582860161342b565b925050602061361385828601613440565b9150509250929050565b60006020828403121561362f57600080fd5b600061363d84828501613440565b91505092915050565b60006136528383613f3c565b60408301905092915050565b600061366a8383613f6b565b60408301905092915050565b60006136828383613fab565b905092915050565b613693816149e1565b82525050565b6136a2816149cf565b82525050565b6136b1816149cf565b82525050565b60006136c282614783565b6136cc81856147d6565b93506136d783614739565b8060005b838110156137085781516136ef8882613646565b97506136fa836147af565b9250506001810190506136db565b5085935050505092915050565b60006137208261478e565b61372a81856147d6565b935061373583614749565b8060005b83811015613765578161374c888261365e565b9750613757836147bc565b925050600181019050613739565b5085935050505092915050565b600061377d82614799565b61378781856147e7565b9350836020820285016137998561475e565b8060005b858110156137d557848403895281516137b68582613676565b94506137c1836147c9565b925060208a0199505060018101905061379d565b50829750879550505050505092915050565b6137f0816149f3565b82525050565b6137ff81614a49565b82525050565b6000613810826147a4565b61381a8185614803565b935061382a818560208601614a5b565b61383381614c47565b840191505092915050565b6000815461384b81614a8e565b6138558186614803565b945060018216600081146138705760018114613882576138b5565b60ff19831686526020860193506138b5565b61388b8561476e565b60005b838110156138ad5781548189015260018201915060208101905061388e565b808801955050505b50505092915050565b60006138cb603583614814565b91507f4f6e6c7920617574686f72206f722061737369676e65652063616e207065726660008301527f6f726d2074686973207472616e73616374696f6e2e00000000000000000000006020830152604082019050919050565b6000613931600f83614814565b91507f5472616e666572206661696c65642e00000000000000000000000000000000006000830152602082019050919050565b6000613971601783614814565b91507f526573756c742063616e6e6f7420626520656d7074792e0000000000000000006000830152602082019050919050565b60006139b1602683614814565b91507f4f776e61626c653a206e6577206f776e657220697320746865207a65726f206160008301527f64647265737300000000000000000000000000000000000000000000000000006020830152604082019050919050565b6000613a17601383614814565b91507f526573756c742069732072657175697265642e000000000000000000000000006000830152602082019050919050565b6000613a57602b83614814565b91507f4f6e6c792061737369676e65652063616e20706572666f726d2074686973207460008301527f72616e73616374696f6e2e0000000000000000000000000000000000000000006020830152604082019050919050565b6000613abd601783614814565b91507f5a65726f2061646472657373207375626d69747465642e0000000000000000006000830152602082019050919050565b6000613afd601983614814565b91507f526573756c7420616c7265616479207375626d69747465642e000000000000006000830152602082019050919050565b6000613b3d602483614814565b91507f41646472657373206469646e2774206170706c7920746f207468652070726f6a60008301527f6563742e000000000000000000000000000000000000000000000000000000006020830152604082019050919050565b6000613ba3602383614814565b91507f50726f6a6563742074797065206973206e6f7420417574686f7253656c65637460008301527f65642e00000000000000000000000000000000000000000000000000000000006020830152604082019050919050565b6000613c09601783614814565b91507f57726f6e6720616d6f756e74207375626d69747465642e0000000000000000006000830152602082019050919050565b6000613c49601983614814565b91507f50726f6a65637420616c72656164792061737369676e65642e000000000000006000830152602082019050919050565b6000613c89601a83614814565b91507f50726f6a65637420616c726561647920636f6d706c657465642e0000000000006000830152602082019050919050565b6000613cc9602083614814565b91507f4f776e61626c653a2063616c6c6572206973206e6f7420746865206f776e65726000830152602082019050919050565b6000613d09601883614814565b91507f4465736372697074696f6e2069732072657175697265642e00000000000000006000830152602082019050919050565b6000613d49601283614814565b91507f5469746c652069732072657175697265642e00000000000000000000000000006000830152602082019050919050565b6000613d896000836147f8565b9150600082019050919050565b6000613da3601383614814565b91507f5265776172642069732072657175697265642e000000000000000000000000006000830152602082019050919050565b6000613de3601c83614814565b91507f50726f6a656374206973206e6f742061737369676e6564207965742e000000006000830152602082019050919050565b6000613e23602983614814565b91507f4f6e6c7920617574686f722063616e20706572666f726d20746869732074726160008301527f6e73616374696f6e2e00000000000000000000000000000000000000000000006020830152604082019050919050565b6000613e89601283614814565b91507f526174696e6720697320696e76616c69642e00000000000000000000000000006000830152602082019050919050565b6000613ec9601f83614814565b91507f5265656e7472616e637947756172643a207265656e7472616e742063616c6c006000830152602082019050919050565b6000613f09601783614814565b91507f50726f6a65637420646f6573206e6f742065786973742e0000000000000000006000830152602082019050919050565b604082016000820151613f526000850182613699565b506020820151613f65602085018261431d565b50505050565b604082016000808301549050613f8081614ac0565b613f8d6000860182613699565b50613f9781614b28565b613fa4602086018261431d565b5050505050565b600061016083016000830151613fc460008601826142ff565b5060208301518482036020860152613fdc8282613805565b91505060408301518482036040860152613ff68282613805565b915050606083015161400b606086018261368a565b50608083015161401e608086018261368a565b5060a083015184820360a086015261403682826136b7565b91505060c083015161404b60c08601826142ff565b5060e083015161405e60e08601826142ff565b506101008301516140736101008601826137f6565b506101208301516140886101208601826142ff565b506101408301518482036101408601526140a28282613805565b9150508091505092915050565b6000610160830160008301516140c860008601826142ff565b50602083015184820360208601526140e08282613805565b915050604083015184820360408601526140fa8282613805565b915050606083015161410f606086018261368a565b506080830151614122608086018261368a565b5060a083015184820360a086015261413a82826136b7565b91505060c083015161414f60c08601826142ff565b5060e083015161416260e08601826142ff565b506101008301516141776101008601826137f6565b5061012083015161418c6101208601826142ff565b506101408301518482036101408601526141a68282613805565b9150508091505092915050565b6000610160830160008084015490506141cb81614b0e565b6141d860008701826142ff565b506001840185830360208701526141ef838261383e565b925050600284018583036040870152614208838261383e565b9250506003840154905061421b81614ada565b614228606087018261368a565b506004840154905061423981614ada565b614246608087018261368a565b506005840185830360a087015261425d8382613715565b9250506006840154905061427081614b0e565b61427d60c08701826142ff565b506007840154905061428e81614b0e565b61429b60e08701826142ff565b50600884015490506142ac81614af4565b6142ba6101008701826137f6565b50600984015490506142cb81614b0e565b6142d96101208701826142ff565b50600a84018583036101408701526142f1838261383e565b925050819250505092915050565b61430881614a32565b82525050565b61431781614a32565b82525050565b61432681614a3c565b82525050565b61433581614a3c565b82525050565b600061434682613d7c565b9150819050919050565b600060208201905061436560008301846136a8565b92915050565b600060208201905081810360008301526143858184613772565b905092915050565b60006020820190506143a260008301846137e7565b92915050565b600060208201905081810360008301526143c1816138be565b9050919050565b600060208201905081810360008301526143e181613924565b9050919050565b6000602082019050818103600083015261440181613964565b9050919050565b60006020820190508181036000830152614421816139a4565b9050919050565b6000602082019050818103600083015261444181613a0a565b9050919050565b6000602082019050818103600083015261446181613a4a565b9050919050565b6000602082019050818103600083015261448181613ab0565b9050919050565b600060208201905081810360008301526144a181613af0565b9050919050565b600060208201905081810360008301526144c181613b30565b9050919050565b600060208201905081810360008301526144e181613b96565b9050919050565b6000602082019050818103600083015261450181613bfc565b9050919050565b6000602082019050818103600083015261452181613c3c565b9050919050565b6000602082019050818103600083015261454181613c7c565b9050919050565b6000602082019050818103600083015261456181613cbc565b9050919050565b6000602082019050818103600083015261458181613cfc565b9050919050565b600060208201905081810360008301526145a181613d3c565b9050919050565b600060208201905081810360008301526145c181613d96565b9050919050565b600060208201905081810360008301526145e181613dd6565b9050919050565b6000602082019050818103600083015261460181613e16565b9050919050565b6000602082019050818103600083015261462181613e7c565b9050919050565b6000602082019050818103600083015261464181613ebc565b9050919050565b6000602082019050818103600083015261466181613efc565b9050919050565b6000602082019050818103600083015261468281846140af565b905092915050565b600060208201905081810360008301526146a481846141b3565b905092915050565b60006020820190506146c1600083018461430e565b92915050565b60006020820190506146dc600083018461432c565b92915050565b600080833560016020038436030381126146fb57600080fd5b80840192508235915067ffffffffffffffff82111561471957600080fd5b60208301925060018202360383131561473157600080fd5b509250929050565b6000819050602082019050919050565b60008190508160005260206000209050919050565b6000819050602082019050919050565b60008190508160005260206000209050919050565b600081519050919050565b600081549050919050565b600081519050919050565b600081519050919050565b6000602082019050919050565b6000600182019050919050565b6000602082019050919050565b600082825260208201905092915050565b600082825260208201905092915050565b600081905092915050565b600082825260208201905092915050565b600082825260208201905092915050565b600061483082614a32565b915061483b83614a32565b9250827fffffffffffffffffffffffffffffffffffffffffffffffffffffffffffffffff038211156148705761486f614b8b565b5b828201905092915050565b600061488682614a32565b915061489183614a32565b9250826148a1576148a0614bba565b5b828204905092915050565b60006148b782614a3c565b91506148c283614a3c565b9250826148d2576148d1614bba565b5b828204905092915050565b60006148e882614a32565b91506148f383614a32565b9250817fffffffffffffffffffffffffffffffffffffffffffffffffffffffffffffffff048311821515161561492c5761492b614b8b565b5b828202905092915050565b600061494282614a32565b915061494d83614a32565b9250828210156149605761495f614b8b565b5b828203905092915050565b600073ffffffffffffffffffffffffffffffffffffffff82169050919050565b600073ffffffffffffffffffffffffffffffffffffffff82169050919050565b600060ff82169050919050565b6000819050919050565b600060ff82169050919050565b60006149da82614a12565b9050919050565b60006149ec82614a12565b9050919050565b60008115159050919050565b6000819050614a0d82614c72565b919050565b600073ffffffffffffffffffffffffffffffffffffffff82169050919050565b6000819050919050565b600060ff82169050919050565b6000614a54826149ff565b9050919050565b60005b83811015614a79578082015181840152602081019050614a5e565b83811115614a88576000848401525b50505050565b60006002820490506001821680614aa657607f821691505b60208210811415614aba57614ab9614c18565b5b50919050565b6000614ad3614ace83614c58565b61496b565b9050919050565b6000614aed614ae883614c58565b61498b565b9050919050565b6000614b07614b0283614c58565b6149ab565b9050919050565b6000614b21614b1c83614c58565b6149b8565b9050919050565b6000614b3b614b3683614c65565b6149c2565b9050919050565b6000614b4d82614a32565b91507fffffffffffffffffffffffffffffffffffffffffffffffffffffffffffffffff821415614b8057614b7f614b8b565b5b600182019050919050565b7f4e487b7100000000000000000000000000000000000000000000000000000000600052601160045260246000fd5b7f4e487b7100000000000000000000000000000000000000000000000000000000600052601260045260246000fd5b7f4e487b7100000000000000000000000000000000000000000000000000000000600052602160045260246000fd5b7f4e487b7100000000000000000000000000000000000000000000000000000000600052602260045260246000fd5b6000601f19601f8301169050919050565b60008160001c9050919050565b60008160a01c9050919050565b60028110614c8357614c82614be9565b5b50565b614c8f816149cf565b8114614c9a57600080fd5b50565b614ca6816149e1565b8114614cb157600080fd5b50565b60028110614cc157600080fd5b50565b614ccd81614a32565b8114614cd857600080fd5b50565b614ce481614a3c565b8114614cef57600080fd5b5056fea2646970667358221220f2d0530295627c48f53debee906fc2cfaaac15482dbeb096e2d21cec6c5204f464736f6c63430008000033",
  "linkReferences": {},
  "deployedLinkReferences": {}
}